:02000002B0004C
:1040000000400B008A8C0B00000006000C0005022B
:0840100004018C130000000004
:04401800E4840B0031
:1040200081F0004102E000BF83F0004330B54FEA69
:1040300041044FEA430594EA050F08BF90EA020FD6
:104040001FBF54EA000C55EA020C7FEA645C7FEA69
:10405000655C00F0E2804FEA5454D4EB5555B8BF8C
:104060006D420CDD2C4480EA020281EA030382EAFD
:10407000000083EA010180EA020281EA0303362D8F
:1040800088BF30BD11F0004F4FEA01314FF4801C62
:104090004CEA113102D0404261EB410113F0004F74
:1040A0004FEA03334CEA133302D0524263EB43032B
:1040B00094EA050F00F0A780A4F10104D5F1200EC9
:1040C0000DDB02FA0EFC22FA05F2801841F1000124
:1040D00003FA0EF2801843FA05F359410EE0A5F1F8
:1040E00020050EF1200E012A03FA0EFC28BF4CF029
:1040F000020C43FA05F3C01851EBE37101F00045DF
:1041000007D54FF0000EDCF1000C7EEB00006EEBEB
:104110000101B1F5801F1BD3B1F5001F0CD3490875
:104120005FEA30004FEA3C0C04F101044FEA4452CC
:1041300012F5800F80F09A80BCF1004F08BF5FEA53
:10414000500C50F1000041EB045141EA050130BD33
:104150005FEA4C0C404141EB0101013C28BFB1F545
:10416000801FE9D291F0000F04BF01460020B1FA90
:1041700081F308BF2033A3F10B03B3F120020CDA63
:104180000C3208DD02F1140CC2F10C0201FA0CF041
:1041900021FA02F10CE002F11402D8BFC2F1200CA6
:1041A00001FA02F120FA0CFCDCBF41EA0C0190405C
:1041B000E41AA2BF01EB0451294330BD6FEA0404A5
:1041C0001F3C1CDA0C340EDC04F11404C4F1200290
:1041D00020FA04F001FA02F340EA030021FA04F3A2
:1041E00045EA030130BDC4F10C04C4F1200220FAF9
:1041F00002F001FA04F340EA0300294630BD21FA37
:1042000004F0294630BD94F0000F83F4801306BFFC
:1042100081F480110134013D4EE77FEA645C18BFF0
:104220007FEA655C29D094EA050F08BF90EA020F87
:1042300005D054EA000C04BF1946104630BD91EA7F
:10424000030F1EBF0021002030BD5FEA545C05D182
:104250004000494128BF41F0004130BD14F58004C1
:104260003CBF01F5801130BD01F0004545F0FE4135
:1042700041F470014FF0000030BD7FEA645C1ABF6A
:10428000194610467FEA655C1CBF0B46024650EAA1
:10429000013406BF52EA033591EA030F41F40021CD
:1042A00030BD00BF90F0000F04BF0021704730B553
:1042B0004FF4806404F132044FF000054FF0000128
:1042C00050E700BF90F0000F04BF0021704730B5E9
:1042D0004FF4806404F1320410F0004548BF4042BE
:1042E0004FF000013EE700BF42004FEAE2014FEA13
:1042F00031014FEA02701FBF12F07F4393F07F4FEE
:1043000081F06051704732F07F4208BF704793F0F0
:104310007F4F04BF41F40021704730B54FF4607403
:1043200001F0004521F000411CE700BF50EA010206
:1043300008BF704730B54FF000050AE050EA0102AF
:1043400008BF704730B511F0004502D5404261EB1F
:1043500041014FF4806404F132045FEA915C3FF460
:10436000D8AE4FF003025FEADC0C18BF03325FEAFD
:10437000DC0C18BF033202EBDC02C2F1200300FAAE
:1043800003FC20FA02F001FA03FE40EA0E0021FAD3
:1043900002F11444BDE600BF70B54FF0FF0C4CF4C1
:1043A000E06C1CEA11541DBF1CEA135594EA0C0F73
:1043B00095EA0C0F00F0DEF82C4481EA030621EAAE
:1043C0004C5123EA4C5350EA013518BF52EA0335E9
:1043D00041F4801143F4801338D0A0FB02CE4FF09B
:1043E0000005E1FB02E506F00042E0FB03E54FF0CB
:1043F0000006E1FB03569CF0000F18BF4EF0010EC3
:10440000A4F1FF04B6F5007F64F5407404D25FEABE
:104410004E0E6D4146EB060642EAC62141EA555171
:104420004FEAC52040EA5E504FEACE2EB4F1FD0CB3
:1044300088BFBCF5E06F1ED8BEF1004F08BF5FEA31
:10444000500E50F1000041EB045170BD06F00046E3
:1044500046EA010140EA020081EA0301B4EB5C0490
:10446000C2BFD4EB0C0541EA045170BD41F4801188
:104470004FF0000E013C00F3AB8014F1360FDEBFAD
:10448000002001F0004170BDC4F10004203C35DA89
:104490000C341BDC04F11404C4F1200500FA05F30C
:1044A00020FA04F001FA05F240EA020001F00042AD
:1044B00021F0004110EBD37021FA04F642EB060123
:1044C0005EEA430E08BF20EAD37070BDC4F10C044D
:1044D000C4F1200500FA04F320FA05F001FA04F211
:1044E00040EA020001F0004110EBD37041F10001FD
:1044F0005EEA430E08BF20EAD37070BDC4F1200508
:1045000000FA05F24EEA020E20FA04F301FA05F26F
:1045100043EA020321FA04F001F0004121FA04F217
:1045200020EA020000EBD3705EEA430E08BF20EAE7
:10453000D37070BD94F0000F0FD101F00046400021
:1045400041EB010111F4801F08BF013CF7D041EAA3
:10455000060195F0000F18BF704703F000465200A7
:1045600043EB030313F4801F08BF013DF7D043EA78
:104570000603704794EA0C0F0CEA135518BF95EA2E
:104580000C0F0CD050EA410618BF52EA4306D1D1B5
:1045900081EA030101F000414FF0000070BD50EAD4
:1045A000410606BF1046194652EA430619D094EA5E
:1045B0000C0F02D150EA013613D195EA0C0F05D148
:1045C00052EA03361CBF104619460AD181EA03019C
:1045D00001F0004141F0FE4141F470014FF0000054
:1045E00070BD41F0FE4141F4780170BD70B54FF0EF
:1045F000FF0C4CF4E06C1CEA11541DBF1CEA13556F
:1046000094EA0C0F95EA0C0F00F0A7F8A4EB050450
:1046100081EA030E52EA03354FEA013100F0888047
:104620004FEA03334FF0805545EA131343EA126310
:104630004FEA022245EA111545EA10654FEA0026C5
:104640000EF000419D4208BF964244F1FD0404F57E
:10465000407402D25B084FEA3202B61A65EB0305DA
:104660005B084FEA32024FF480104FF4002CB6EB97
:10467000020E75EB030E22BFB61A754640EA0C0017
:104680005B084FEA3202B6EB020E75EB030E22BF57
:10469000B61A754640EA5C005B084FEA3202B6EB98
:1046A000020E75EB030E22BFB61A754640EA9C0057
:1046B0005B084FEA3202B6EB020E75EB030E22BF27
:1046C000B61A754640EADC0055EA060E18D04FEAE5
:1046D000051545EA16754FEA06164FEAC30343EA85
:1046E00052734FEAC2025FEA1C1CC0D111F4801F52
:1046F0000BD141EA00014FF000004FF0004CB6E74B
:1047000011F4801F04BF01430020B4F1FD0C88BFE9
:10471000BCF5E06F3FF6AFAEB5EB030C04BFB6EBF4
:10472000020C5FEA500C50F1000041EB045170BDE7
:104730000EF0004E4EEA113114EB5C04C2BFD4EB14
:104740000C0541EA045170BD41F480114FF0000E98
:10475000013C90E645EA060E8DE60CEA135594EA14
:104760000C0F08BF95EA0C0F3FF43BAF94EA0C0F17
:104770000AD150EA01347FF434AF95EA0C0F7FF48C
:1047800025AF104619462CE795EA0C0F06D152EAE0
:1047900003353FF4FDAE1046194622E750EA4106C4
:1047A00018BF52EA43067FF4C5AE50EA41047FF4D5
:1047B0000DAF52EA43057FF4EBAE12E74FF0FF3C3A
:1047C00006E000BF4FF0010C02E000BF4FF0010C0B
:1047D0004DF804CD4FEA410C7FEA6C5C4FEA430C84
:1047E00018BF7FEA6C5C1BD001B050EA410C0CBFD3
:1047F00052EA430C91EA030F02BF90EA020F002035
:10480000704710F1000F91EA030F58BF994208BF9B
:1048100090422CBFD8176FEAE37040F00100704758
:104820004FEA410C7FEA6C5C02D150EA013C07D1AF
:104830004FEA430C7FEA6C5CD6D152EA033CD3D0FA
:104840005DF8040B704700BF8446104662468C46F4
:104850001946634600E000BF01B5FFF7B7FF002827
:1048600048BF10F1000F01BD4DF808EDFFF7F4FF50
:104870000CBF012000205DF808FB00BF4DF808EDDB
:10488000FFF7EAFF34BF012000205DF808FB00BFFE
:104890004DF808EDFFF7E0FF94BF012000205DF820
:1048A00008FB00BF4DF808EDFFF7CEFF94BF0120D5
:1048B00000205DF808FB00BF4DF808EDFFF7C4FFCE
:1048C00034BF012000205DF808FB00BF4FEA410C17
:1048D0007FEA6C5C02D150EA013C0AD14FEA430CFA
:1048E0007FEA6C5C02D152EA033C02D14FF0000037
:1048F00070474FF0010070474FEA4102B2F1E043C8
:1049000024BFB3F5001CDCF1FE5C0DD901F0004CB6
:104910004FEAC0024CEA5070B2F1004F40EB830006
:1049200008BF20F00100704711F0804F21D113F132
:104930003872BCBF01F00040704741F480114FEA6B
:104940005252C2F11802C2F1200C10FA0CF320FAF4
:1049500002F018BF40F001004FEAC1234FEAD32311
:1049600003FA0CFC40EA0C0023FA02F34FEA43037B
:10497000CCE77FEA625307D150EA01331EBF4FF004
:10498000FE4040F44000704701F0004040F0FE401F
:1049900040F40000704700BF80F0004002E000BF1C
:1049A00081F0004142001FBF5FEA410392EA030F1A
:1049B0007FEA226C7FEA236C6AD04FEA1262D2EB64
:1049C0001363C1BFD218414048404140B8BF5B4269
:1049D000192B88BF704710F0004F40F4000020F002
:1049E0007F4018BF404211F0004F41F4000121F018
:1049F0007F4118BF494292EA030F3FD0A2F1010262
:104A000041FA03FC10EB0C00C3F1200301FA03F19F
:104A100000F0004302D5494260EB4000B0F5000FC2
:104A200013D3B0F1807F06D340084FEA310102F181
:104A30000102FE2A51D2B1F1004F40EBC25008BF33
:104A400020F0010040EA03007047490040EB0000FD
:104A5000013A28BFB0F5000FEDD2B0FA80FCACF1FE
:104A6000080CB2EB0C0200FA0CF0AABF00EBC2502B
:104A700052421843BCBFD0401843704792F0000F19
:104A800081F4000106BF80F400000132013BB5E76C
:104A90004FEA41037FEA226C18BF7FEA236C21D0E2
:104AA00092EA030F04D092F0000F08BF0846704747
:104AB00090EA010F1CBF0020704712F07F4F04D115
:104AC000400028BF40F00040704712F100723CBF28
:104AD00000F50000704700F0004343F0FE4040F452
:104AE000000070477FEA226216BF08467FEA236310
:104AF0000146420206BF5FEA412390EA010F40F4FB
:104B0000800070474FF0000304E000BF10F0004346
:104B100048BF40425FEA000C08BF704743F096432D
:104B200001464FF000001CE050EA010208BF704748
:104B30004FF000030AE000BF50EA010208BF7047CF
:104B400011F0004302D5404261EB41015FEA010CE4
:104B500002BF84460146002043F0B64308BFA3F1DC
:104B60008053A3F50003BCFA8CF2083AA3EBC253BE
:104B700010DB01FA02FC634400FA02FCC2F12002DD
:104B8000BCF1004F20FA02F243EB020008BF20F014
:104B90000100704702F1200201FA02FCC2F120027A
:104BA00050EA4C0021FA02F243EB020008BF20EA6F
:104BB000DC7070477BB972B90029BEBF00204FF08E
:104BC000004106E008BF00281CBF6FF000414FF015
:104BD000FF3000F0A7B9ADF1080C6DE904CE002953
:104BE00009DB002B1ADB00F035F8DDF804E0DDE925
:104BF000022304B07047404261EB4101002B1BDBF4
:104C000000F028F8DDF804E0DDE9022304B04042BA
:104C100061EB4101524263EB43037047524263EB45
:104C2000430300F017F8DDF804E0DDE9022304B0E7
:104C3000404261EB41017047524263EB430300F095
:104C400009F8DDF804E0DDE9022304B0524263EB29
:104C5000430370472DE9F047089D04468E46002B1C
:104C60004DD18A42944669D9B2FA82F252B101FA20
:104C700002F3C2F1200120FA01F10CFA02FC41EA30
:104C8000030E94404FEA1C48210CBEFBF8F61FFAB5
:104C90008CF708FB16E341EA034306FB07F1994250
:104CA0000AD91CEB030306F1FF3080F01F81994203
:104CB00040F21C81023E63445B1AA4B2B3FBF8F0DD
:104CC00008FB103344EA034400FB07F7A7420AD964
:104CD0001CEB040400F1FF3380F00A81A74240F28C
:104CE00007816444023840EA0640E41B00261DB1F7
:104CF000D4400023C5E900433146BDE8F0878B422C
:104D000009D9002D00F0EF800026C5E900013046EA
:104D10003146BDE8F087B3FA83F6002E4AD18B42C4
:104D200002D3824200F2F980841A61EB030301206E
:104D30009E46002DE0D0C5E9004EDDE702B9FFDE5A
:104D4000B2FA82F2002A40F09280A1EB0C014FEA05
:104D50001C471FFA8CFE0126200CB1FBF7F307FB62
:104D6000131140EA01410EFB03F0884208D91CEB05
:104D7000010103F1FF3802D2884200F2CB804346A2
:104D8000091AA4B2B1FBF7F007FB101144EA014481
:104D90000EFB00FEA64508D91CEB040400F1FF3110
:104DA00002D2A64500F2BB800846A4EB0E0440EAFE
:104DB00003409CE7C6F12007B34022FA07FC4CEA07
:104DC000030C20FA07F401FA06F31C43F9404FEAFA
:104DD0001C4900FA06F3B1FBF9F8200C1FFA8CFE0F
:104DE00009FB181140EA014108FB0EF0884202FA63
:104DF00006F20BD91CEB010108F1FF3A80F0888024
:104E0000884240F28580A8F102086144091AA4B2E0
:104E1000B1FBF9F009FB101144EA014100FB0EFE61
:104E20008E4508D91CEB010100F1FF346CD28E4590
:104E30006AD90238614440EA0840A0FB0294A1EB21
:104E40000E01A142C846A64656D353D05DB1B3EB7E
:104E5000080261EB0E0101FA07F722FA06F3F140AE
:104E60001F43C5E9007100263146BDE8F087C2F155
:104E70002003D8400CFA02FC21FA03F391400143CD
:104E80004FEA1C471FFA8CFEB3FBF7F007FB103606
:104E90000B0C43EA064300FB0EF69E4204FA02F4B2
:104EA00008D91CEB030300F1FF382FD29E422DD905
:104EB000023863449B1B89B2B3FBF7F607FB16333A
:104EC00041EA034106FB0EF38B4208D91CEB0101BA
:104ED00006F1FF3816D28B4214D9023E6144C91A3A
:104EE00046EA004638E72E46284605E70646E3E64A
:104EF0001846F8E64B45A9D2B9EB020864EB0C0E54
:104F00000138A3E74646EAE7204694E74046D1E762
:104F1000D0467BE7023B614432E7304609E7644410
:104F2000023842E7704700BF034613F8012B002AFE
:104F3000FBD1181A0138704709480A49884208B558
:104F400005D0094A824202D0121A03F021FA07481A
:104F5000074A0021121A03F029FA014808BD00BFD0
:104F6000C8E50320E88B0B003CE603203CE6032069
:104F7000F0E7032070B5074E074C02F037F8A41B8A
:104F8000A4080025AC4200D170BD56F8043B9847F8
:104F90000135F7E7988B0B00BC8B0B0000F0A6B92E
:104FA00008B500F019FABDE8084001F0D7BF01F0DC
:104FB00079BA01F07FBA0078B0FA80F04009704702
:104FC0000123037070470EB403B503AB012153F8FE
:104FD000042B019301F0FBFC02B05DF804EB03B07D
:104FE00070470000000000002DE9F0472DED028B16
:104FF000494C4A4B2268002A77D11B6823602068FD
:10500000474DDFF830A1FFF74DF939A3D3E900236D
:10501000FFF7ECFAFFF770FC2860FFF765F99FEDEA
:10502000361B41EC100B02F027F995ED008A18EEC3
:10503000100A57EC106BFFF757F931A3D3E900239F
:105040008046894630463946FFF7A6F9424606466D
:105050000F464B4640464946FFF79EF92AA3D3E93F
:105060000023FFF799F902460B4630463946FEF712
:10507000DBFFDFED2C7A68EE277A064617EE900A02
:105080000F46FFF731F902460B4630463946FEF728
:10509000CDFF1FA3D3E90023FEF7C8FFFFF72CFCC9
:1050A000CAF8000001F0D4FE22681F49FFF78BFF09
:1050B00001F0CEFE04462868FFF716F902460B46BB
:1050C00020461A49FFF77FFF01F0C2FE0446DAF8D6
:1050D0000000FFF709F902460B4620461449FFF786
:1050E00072FFBDEC028BBDE8F0871A6087E700BF56
:1050F00000000000804F1241000000000000084046
:105100009A9999999999F13F6666666666660E4026
:10511000D7A3703D0AD7E33FACE60320A8E60320FF
:10512000B0E6032000000244F8840B0001850B0068
:105130000D850B009CE6032038B50446114800F0AD
:10514000FFF911490546204601F075FD0F4B1B681C
:10515000AB4205D10E49204601F09BFD204638BDEB
:105160000C4B1B68AB4201D10B49F4E70B4B1B689E
:10517000AB4201D10A49EEE70A4B1B68AB42EDD1C5
:105180000949E8E73CE6032025850B0030860B0043
:105190002A850B0038860B0031850B0034860B0006
:1051A00040850B003C860B004E850B0070B5064613
:1051B0000E480D46144600F0D5FCBDEEC00A0B4863
:1051C00086ED000A00F048FD9FED097A0748C0EE21
:1051D000077AFDEEE77AC5ED007A00F0F3FCBDEE4C
:1051E000C00A012084ED000A70BD00BF58E603200C
:1051F0000000C842F8B51F460646324814460D4620
:1052000000F0E4FE03222F48002100F09AFE3968E6
:105210002C4800F0FCFE00222A48022100F091FEFA
:105220002949284800F0F3FE3146264800F0FCFEEC
:105230002649244800F0EBFE00222248032100F01A
:1052400080FE23491F4800F0E2FE29461D4800F079
:10525000EBFE20491B4800F0DAFE00221948042129
:1052600000F06FFE1C49174800F0D1FE214615489A
:105270001A4C00F0D9FE1A49124800F0C8FE94ED0D
:10528000007AF7EE007AB4EEE77AF1EE10FA17DD65
:1052900000220C48052100F054FE1249094800F094
:1052A000B6FED4ED007A0748FDEEE77A17EE901AC5
:1052B00000F0BAFEBDE8F8400B49024800F0A7BE76
:1052C000F8BD00BFC0E6032058850B005F850B00CA
:1052D00061850B000B850B006C850B009CE60320A1
:1052E00074850B0079850B001E850B0008B501F055
:1052F000AFFD4FF4165101F09FFD0021042001F095
:10530000E5FE00F0DBFE284B1860284B01211888D1
:1053100001F0DCFE264800F0E6F800283BD001F062
:1053200097FD244901F02BFB234800F0BEFD002827
:1053300035D001F08DFD214901F021FB01F034FF52
:1053400001F070F91E4800F0DFFD1D4800F03EFE40
:105350001B4800F0A0FE1A4800F0E8FD00221848A3
:10536000022100F0EEFD1749154800F050FE002222
:105370001348032100F0E5FD1349114800F047FEF2
:105380000F480421002200F0DCFDBDE808400F4971
:105390000B4800F03CBE01F05BFD0D49C2E701F097
:1053A00057FD0C49C8E700BFA4E60320C8E5032069
:1053B0003CE6032080850B0058E60320B4850B00F3
:1053C000C0E60320DE850B00E7850B00F3850B00AC
:1053D0009A850B00C9850B0030B5314C314D2088C2
:1053E0008FB0012101F083FE4FF47A7001F092F842
:1053F00020882D4C002101F07AFE4FF47A7001F0E4
:1054000089F80021042001F0B5FE284B18602368BC
:105410001844206000F052FE2B68C01A47F2305347
:10542000984206D9FFF7E0FD0023236000F046FE16
:10543000286006A8FFF780FE01F00AFD069A1C49C5
:10544000FFF7C1FD05AA04A903A8FFF7AFFE01F00D
:10545000FFFC039A1749FFF7B6FD01F0F9FC049A27
:105460001549FFF7B0FD01F0F3FC059A1349FFF76A
:10547000AAFDDDE90425039C019206A90AA801F012
:10548000FDFB019A0AAB29462046FFF7B3FE0AA8A6
:1054900001F086FB06A801F083FB0FB030BD00BF12
:1054A000C8E50320A4E60320ACE60320A0E6032021
:1054B000FB850B000B860B0014860B0021860B006E
:1054C00008B50448112100F009F8BDE80840024879
:1054D00000F0A4B83CE6032058E603200022C0E90F
:1054E00004220160704710B50446008801F02BFECD
:1054F00040F21233A0F10B029A4207D8C4E901002E
:10550000E06000F0DBFDA061012010BD0020FCE7A1
:1055100010B5044600F0D2FDA369C01A074B9842AB
:105520000AD9D4E9043293FBF2F3E36000F0C6FD3C
:105530000023C4E90433A06110BD00BF20A107000F
:1055400010B5836843600446008801F0FCFD2369C0
:10555000A060184463692061013363612046FFF74E
:10556000D7FFD4E90112511AB1F5C87F10DCB2F5AA
:105570002F7F0DDCE368D31A962B0BDCC82902DDE4
:10558000B2F52F7F08D1322BCCBF0220032010BDF3
:105590000020FCE70120FAE70220F8E7704710B589
:1055A00010210446FFF705FD204610BD0EB403B5DB
:1055B00003AB002153F8042B019301F008FA02B069
:1055C0005DF804EB03B0704773B5044608462279D2
:1055D000A36832B1A3B90B4902B0BDE8704001F035
:1055E000BBB9094A267B094D0949647B012E18BFC6
:1055F0002946CDE900140749FFF7D8FF02B070BD76
:10560000054AEFE751860B005E850B004D860B00C7
:1056100049860B0067860B0040860B004FF0FF3376
:105620000361704713B50B4C2178BFF35B8F11F00A
:1056300001010BD120460191FFF7BDFC019928B172
:10564000054801F001FA2046FFF7BAFC024802B013
:1056500010BD00BFB4E60320B8E6032008B5FFF78D
:10566000E1FFBDE8084001F00DBA07B50190FFF772
:10567000D9FF019903B05DF804EB01F01DBA2DE9E3
:10568000F04190F91330013305460F4606D1FFF77C
:10569000C9FF3946BDE8F04101F07CBA0024072675
:1056A0004FF0010895F91300002180B201F01FFDB1
:1056B00095F9110008FA06F1394080B201F017FDA2
:1056C00095F91300012180B201F011FD95F9120046
:1056D000640080B2E4B201F023FD08B144F001049B
:1056E000013EDFD22046BDE8F08100007FB590F991
:1056F0001030013304460E46154613D10179006877
:1057000000F0C2FF2068036831469B689847206814
:10571000036829469B689847206804B0BDE870403C
:1057200000F0BDBF90F9133001330CD1164B00933C
:1057300000238DF80430154B029368460123ADF821
:105740000C30FFF792FF94F91000002180B201F0B5
:10575000CEFC06F07F012046FFF791FF2946204648
:10576000FFF78DFF94F91000012180B201F0BFFC1A
:1057700094F91330013304D104B0BDE87040FFF751
:105780006DBF04B070BD00BF8C860B0020A1070068
:10579000F8B5DB0002F0070203F03803134343EAD5
:1057A00081139DF8186080F83C3090F840309DF8E7
:1057B0001C509DF8207066F3471380F84030ED00D0
:1057C00090F8383007F0070705F0380523F03F035D
:1057D0003D4304461D4380F8385006F00702F2218D
:1057E000FFF784FF94F83820C2F3C20302F00701E8
:1057F0009B0043EA411343EAD2122046F521FFF70A
:1058000075FF94F83C20C2F3C20302F007019B002D
:1058100043EA411343EA92122046F421BDE8F840DE
:10582000FFF764BF30B590F91030013385B00446FE
:105830000D4618D10179006800F026FF2068036842
:1058400029469B689847206800F029FF2179206845
:10585000012200F016FF206803685B699847C5B213
:10586000284605B030BD90F9133001330CD1154BEB
:10587000009300238DF80430134B029368460123F4
:10588000ADF80C30FFF7F1FE94F91000002180B262
:1058900001F02DFC45F080012046FFF7F0FE0021CD
:1058A0002046FFF7ECFE054694F91000012180B276
:1058B00001F01DFC94F913300133D1D1FFF7CEFE76
:1058C000CEE700BF8C860B0020A1070008B5F321AE
:1058D000FFF7A8FF00F0010008BD000030B590F907
:1058E0001030013385B004460D461FD101790068A0
:1058F00000F0CAFE2068036829469B689847206824
:1059000000F0CDFE21792068022200F0BAFE206866
:1059100003685B6998470546206803685B69984798
:1059200040EA052085B2284605B030BD90F9133015
:1059300001330CD1184B009300238DF80430174B22
:10594000029368460123ADF80C30FFF78EFE94F900
:105950001000002180B201F0CAFB45F08001204612
:10596000FFF78DFE00212046FFF789FE0021054646
:105970002046FFF784FE40EA052085B294F9100026
:10598000012180B201F0B3FB94F913300133CAD185
:10599000FFF764FEC7E700BF8C860B0020A107005D
:1059A00008B5FFF79BFF40BA80B208BD38B5882123
:1059B0000446FFF7F5FF8A21A0822046FFF7F0FF9B
:1059C0008C21E0822046FFF7EBFF8E2120832046CA
:1059D000FFF7E6FF902160832046FFF7E1FF922169
:1059E000A0832046FFF7DCFF9421E0832046FFF7E9
:1059F000D7FF962120842046FFF7D2FF98216084AC
:105A00002046FFF7CDFF9A21A0842046FFF7C8FF6C
:105A10009C21E0842046FFF7C3FF9E21208520467D
:105A2000FFF7BEFFA12160852046FFF7FBFEE121C5
:105A300084F82C002046FFF7B3FFE321E0852046E1
:105A4000FFF7F0FEE42184F830002046FFF7EAFE7D
:105A5000E52105462046FFF7E5FE00F00F0343EA87
:105A600005106086E6212046FFF7DCFEE5210546AD
:105A70002046FFF7D7FEC0F3071343EA0510A086C0
:105A8000E7212046FFF7CEFE84F8360038BD00003F
:105A900030B590F91030013385B004460D4623D15E
:105AA0000179006800F0F0FD2068036829469B68D2
:105AB0009847206800F0F3FD21792068032200F068
:105AC000E0FD206803685B69984705022068036869
:105AD0005B69984728430502206803685B6998471B
:105AE0000543284605B030BD90F9133001330CD181
:105AF0001A4B009300238DF80430194B029368462B
:105B00000123ADF80C30FFF7B0FD94F9100000212F
:105B100080B201F0ECFA45F080012046FFF7AFFDBE
:105B200000212046FFF7ABFD002105022046FFF7CC
:105B3000A6FD2843050200212046FFF7A0FD0543EE
:105B400094F91000012180B201F0D1FA94F91330D8
:105B50000133C6D1FFF782FDC3E700BF8C860B007F
:105B600020A1070010B5FA210446FFF791FFB0F518
:105B7000000F1FD0A18A9FED117A4B00C1EB2022AC
:105B8000C3EBE011B4F91630594302FB02F3B4F948
:105B900018201B1353439B1303EBE123E36003EB38
:105BA000830380331B1207EE903AF8EEE77A87EE14
:105BB000870A10BD9FED020AFBE700BF0000C84244
:105BC0000000C07F38B50446FFF7CCFFFD2120461A
:105BD000FFF784FEB0F5004F38D0E168B4F9342007
:105BE000A1F59635B4F932100905C1EB803305FBF8
:105BF000123303F58043DA1394F8303094F93610F9
:105C00006B43DB126943891203F500434B439B123C
:105C1000B4F92E1003F500134B4303F500539B1307
:105C20005343DA1394F82C105243D2114A43A3EB96
:105C3000221323EAE373B3F1C85FA8BF4FF0C85340
:105C40001B1300EE103ABAEECB0A38BD9FED010AE5
:105C5000FBE700BF0000C07F2DE9F8430546FFF7D2
:105C600081FFF7212846FFF713FFB0F5000F00F082
:105C7000B680E968B5F91C304FEAE17EB1F5FA313A
:105C80004EF1FF3EDC1703FB0EF201FB0422A3FBE7
:105C9000013422441203A1FB01781C0301FB0EF620
:105CA00042EA1352B5F91E3008EB46084FEAE37C8E
:105CB00003FB08F607FB0C66A3FB073C66441B0AC4
:105CC00043EA06631B1942EB26226E8B02F5004263
:105CD000A3FB063406FB0244E317621053EA640494
:105CE0004FF0000C7ED0B5F9244004FB08F64FEAD3
:105CF000E47907FB0966A4FB07473E44B5F9227027
:105D00004FEAE77807FB0EFE01FB08EEA7FB0171E7
:105D10007144490441EAD73100117F043F19C0F5AD
:105D2000801446EB010604F00040B5F920101CEB8E
:105D3000070740EA5400E407E41B06EBC10640F6FF
:105D4000354160EB0606A4FB010401FB0641FEF7AA
:105D500031FFB5F92A20B5F928604FEA613C430BC1
:105D600043EAC14302FB0CF7D41703FB0477A2FB01
:105D700003243C4402FB0CF703FB0477A2FB032340
:105D80001F44530E43EAC7131B184FEAE67206FB83
:105D900001F4864641EB676702FB0041A6FB0E0655
:105DA000B5F926403144C00C40EA413018184FEA9A
:105DB000E47547EBE141000A2D0140EA016045EA44
:105DC00014752401201845EB2121FEF7B5FE9FED47
:105DD000070A07EE900A27EE800ABDE8F8839FEDD8
:105DE000040AFAE79FED030AF7E700BF0000803BD3
:105DF0000000C07F0000000030B5044690F910009C
:105E0000421C85B019D1206800F00CFCD02120463E
:105E1000FFF708FD6028A06045D12046B622E021AA
:105E2000FFF764FC4FF4967000F074FB2046FFF718
:105E30004DFD054628B36420F6E7012180B201F04C
:105E400056F994F91000012180B201F03FF994F95C
:105E50001300431C04D1FFF7E5FB00F0FFFDD5E77D
:105E6000012180B201F032F994F91100012180B2D0
:105E700001F02CF994F91200002180B201F026F90A
:105E8000C4E72046FFF792FD052300931A4603213D
:105E90002046CDE90155FFF77BFC642000F03AFB7A
:105EA000012005B030BD0020FBE7772310B503715A
:105EB000044601F079F920602046FFF79DFF30B9D4
:105EC000762323712046BDE81040FFF795BF10BD33
:105ED0000368C9B29B68184710B5044601F064F91D
:105EE0003C2100F0D5FB01F05FF98021FFF7F0FFC6
:105EF00001F05AF9036821469B68984701F054F96C
:105F0000BDE8104000F0CBBB08B5AE20FFF7E4FFC2
:105F1000052000F0FFFAAF20FFF7DEFF052000F0BC
:105F2000F9FABDE80840A620FFF7D6BF08B501235F
:105F300003702020FFF7D0FFBDE808400220FFF7E4
:105F4000CBBF10B550391446C8B2FFF7C5FFE0000B
:105F500000F00800FFF7C0FFC4F343001030BDE8B5
:105F60001040FFF7B9BF10B50C4601F01DF93C21F8
:105F700000F08EFB01F018F94021FFF7A9FF01F0B6
:105F800013F9036821469B68984701F00DF9BDE8B5
:105F9000104000F084BB0000A1F120035F2B88BFFC
:105FA000202170B501F10051074D2039064605EB5F
:105FB000C105082415F8011B3046013CFFF7D3FF4B
:105FC00014F0FF04F6D170BD98860B0070B505463D
:105FD000AE20FFF781FF00260022F1B22846FFF72E
:105FE000B0FF102420212846013CFFF7D5FF14F014
:105FF000FF04F7D10136082EEED1AF20FFF76CFF7A
:10600000224621462846BDE87040FFF79ABF70B58A
:1060100006460D460024E3B20134E95C19B130466E
:10602000FFF7BAFFF7E770BDF0B585B000230C1E8F
:10603000CDE901330646ADF80C3024DA2D21FFF707
:10604000ABFF6442012300250A202A4604A90A4422
:106050000135B4FBF0F100FB114402F80C4CEDB239
:106060000C460029F1D12B44DCB204AB5F190D3F83
:1060700075B117F801193031C9B23046013DFFF74B
:106080008BFFEDB2F4E7DED13021FFF785FF01246D
:10609000204605B0F0BDA620FFF71EBF08B5024B95
:1060A0001B685B6C019308BD4802030008B5024BF6
:1060B0001B685B68019308BD1802030008B5024B1A
:1060C0001B685B69019308BD1802030008B5024B09
:1060D0001B685B68019308BD2C02030008B5024BE6
:1060E0001B689B68019308BD2C02030008B5024B96
:1060F0001B68DB68019308BD2C02030008B5024B46
:106100001B681B69019308BD2C02030008B5024BF4
:106110001B685B69019308BD2C02030008B5024BA4
:106120001B681B6B019308BD2C02030008B5024BD2
:106130001B68DB6C019308BD2C02030008B5024B01
:106140001B68DB68019308BD2802030008B5024BF9
:106150001B689B69019308BD2802030008B5024B28
:106160001B68DB69019308BD2802030008B5024BD8
:106170001B681B6A019308BD2802030008B5024B87
:106180001B685B6A019308BD2802030008B5024B37
:106190001B689B6A019308BD2802030008B5024BE7
:1061A0001B68DB6A019308BD2802030008B5024B97
:1061B0001B681B6B019308BD2802030008B5024B46
:1061C0001B685B6B019308BD2802030008B5024BF6
:1061D0001B681B6C019308BD2802030008B5024B25
:1061E0001B681B6D019308BD2802030008B5024B14
:1061F0001B685B69019308BD6402030008B5024B8C
:106200001B689B68019308BD6802030008B5024B38
:106210001B68DB68019308BD6802030008B5024BE8
:106220001B681B68019308BD3002030008B5024BD0
:106230001B685B69019308BD3002030008B5024B7F
:106240001B68DB69019308BD3002030008B5024BEF
:106250001B681B6A019308BD3002030008B5024B9E
:106260001B685B6A019308BD3002030008B5024B4E
:106270001B68DB6B019308BD3002030008B5024BBD
:106280001B681B6C019308BD3002030008B5024B6C
:106290001B685B6C019308BD3002030008B5024B1C
:1062A0001B68DB68019308BD3C02030008B5024B84
:1062B0001B681B69019308BD3C02030008B5024B33
:1062C0001B685B69019308BD3C02030008B5024BE3
:1062D0001B689B69019308BD3C02030008B5024B93
:1062E0001B68DB69019308BD3C02030008B5024B43
:1062F0001B681B6A019308BD3C02030008B5024BF2
:106300001B689B6A019308BD3C02030008B5024B61
:106310001B681B6C019308BD3C02030008B5024BCF
:106320001B681B68019308BD4C02030008B5024BB3
:106330001B685B68019308BD4C02030008B5024B63
:106340001B681B69019308BD4C02030008B5024B92
:106350001B685B69019308BD4C02030008B5024B42
:106360001B689B69019308BD4C02030008B5024BF2
:106370001B68DB69019308BD4C02030008B5024BA2
:106380001B681B6A019308BD4C02030008B5024B51
:106390001B685B68019308BD2002030008B5024B2F
:1063A0001B685B69019308BD2002030008B5034B1D
:1063B0001B68D3F88830019308BD00002002030059
:1063C00008B5034B1B68D3F89430019308BD000057
:1063D0002002030008B5024B1B68DB6B019308BD6C
:1063E0004402030008B5024B1B685B68019308BDBB
:1063F0004002030008B5024B1B689B68019308BD6F
:106400004002030008B5024B1B68DB68019308BD1E
:106410004002030008B5024B1B681B69019308BDCD
:106420004002030008B5024B1B685B69019308BD7D
:106430004002030008B5024B1B689B69019308BD2D
:106440004002030008B5024B1B68DB69019308BDDD
:106450004002030008B5024B1B681B6A019308BD8C
:106460004002030008B5024B1B681B6B019308BD7B
:106470004002030008B5024B1B685B6B019308BD2B
:106480004002030008B5024B1B681B6C019308BD5A
:106490004002030008B5024B1B685B6C019308BD0A
:1064A0004002030008B5024B1B681B68019308BD3E
:1064B0001C02030008B5024B1B685B68019308BD12
:1064C0001C02030008B5024B1B689B68019308BDC2
:1064D0001C02030008B5024B1B685B6A019308BDF0
:1064E0001C02030008B5024B1B68DB6B019308BD5F
:1064F0001C02030008B5024B1B681B6C019308BD0E
:106500001C02030008B5024B1B685B6C019308BDBD
:106510001C0203000021FFF741BF000002480023D6
:106520000360FFF7BBBD00BFC4E603200022406844
:106530001146FFF78FBF002240681146FFF79ABF50
:1065400040680022FFF78EBF4068002281F0010101
:10655000FFF778BF002340681A461946FFF76ABF65
:10656000002340681A461946FFF75CBF00224068C6
:106570001146FFF74FBF002240681146FFF73ABFB0
:10658000406800220221FFF73DBF002340681A4601
:10659000FFF728BF024B03225A60024A1A60704775
:1065A000C8E60320A0890B007047F8B506461546DB
:1065B0000C468F18BC4206D0336814F8011B9B6848
:1065C00030469847F6E72846F8BD007C0022FFF7E2
:1065D000CDBD007C0021FFF7D1BD007C0021FFF77D
:1065E000D5BD007C0021FFF7D9BD007C0021FFF75D
:1065F000DDBD10B514210446FEF7DBFC204610BDBE
:1066000010B54FF47A73044608460021C4E901131B
:10661000034B236020741146FFF7D8FD204610BDC0
:10662000DC890B000023007C1A461946FFF786BD63
:106630007FB500221423CDE90122ADF804300B7898
:106640008DF808304B680393CB680493007C0B7A79
:10665000059301A9FFF7C2FD07B05DF804FB1FB564
:10666000003B8DF800104FF06401039118BF012327
:10667000694601928DF80830FFF7DAFF05B05DF842
:1066800004FB0123FFF7EBBF007C0022FFF75EBD98
:10669000C9B2FFF7F9BF007C0022FFF75FBD0121FF
:1066A000FFF7F9BF704710B518210446FEF781FCCB
:1066B000204610BDF0B5037D062B8DB00E4600F1CF
:1066C00004074FF0000412D000F1080515F8011D71
:1066D0000A22304600F05DF9AF42044419D0002C84
:1066E000F4D02E21304600F03BF90444EEE72F238E
:1066F0006A4639460A208DF80040FFF777FD684664
:10670000FEF712FC33680246DB686946304698475C
:10671000044620460DB0F0BD10B5054B04461122CD
:1067200040F8043B002101F041FE204610BD00BFAF
:10673000048A0B000346074A10B543F8042B01F105
:10674000100251F8044B43F8044B9142F9D10A78F6
:106750001A7010BD048A0B0010B59DF8084044EA79
:10676000032343EA024242EA0161042341600375C4
:1067700010BD000007B5064B0360CB7800938B7803
:106780004A780978FFF7E8FF03B05DF804FB00BF23
:10679000048A0B00014B024A1A607047D0E60320BE
:1067A000108A0B00002340681A46FFF71BBE4068A2
:1067B00000220221FFF726BE002240681146FFF7A3
:1067C00019BE002240681146FFF724BE002340682E
:1067D0001A461946FFF726BE002340681A46194696
:1067E000FFF728BE40680021FFF74CBE406800213B
:1067F000FFF750BE4068002281F00101FFF722BE82
:1068000040680022FFF72EBE002240681146FFF7C5
:1068100031BE002240681146FFF71CBE2DE9F0434F
:1068200095B014460D460746FFF776FF00211C225F
:106830000DA8009101F0BAFD40230C9320466B4651
:106840000CAA0021FFF7E2FC044600284BD10246C7
:1068500001216868FFF7DEFD022180462246686854
:10686000FFF7D8FD009E81462146002E3BD000292F
:1068700039D17368022B03D00A2B11D0F669F4E7E3
:10688000B8F1000FFAD0716906A8043107ADFFF71F
:1068900071FF0FCD3C1D0FC42B6823704146EDE7FF
:1068A000B9F1000FEAD07469102201A801F07EFD51
:1068B00006238DF8143001AD04F10803183418686C
:1068C00059682A4603C20833A3421546F7D101A9E5
:1068D00006A807ADFFF72EFF0FCD3C1D0FC42B6898
:1068E00023704946CAE70098FFF788FC384615B080
:1068F000BDE8F083024B034A1A6000225A607047D9
:10690000D4E603201C8A0B00F8B506460D468F1806
:106910000024BD420CD0336815F8011B9B6830463B
:106920009847031E01DB1C44F3E7002C08BF1C46FC
:106930002046F8BD13B50446084659B10191FEF74B
:10694000F3FA23680199DB680246204602B0BDE8ED
:106950001040184702B010BD08B5FFF7EBFF08BDA7
:1069600003689B68184738B50D210546FFF7F8FF07
:106970000A2104462846FFF7F3FF204438BD38B506
:106980000546FFF7D7FF04462846FFF7ECFF2044F3
:1069900038BD30B58BB00023012A8DF8243098BF64
:1069A0000A2209AC0D46B1FBF2F101FB125303F0D0
:1069B000FF03092B94BF30333733DBB2AA4204F80C
:1069C000013DEFD92146FFF7B5FF0BB030BD2DE9F2
:1069D000F04186B000AF05460E46381D142114461E
:1069E0003B60FFF777FD13280ED8391D2846FFF7C7
:1069F000A1FF04461EB12846FFF7B5FF0444204618
:106A00001837BD46BDE8F08100F1080323F0070305
:106A1000E846ADEB030D2246411C3B686846FFF794
:106A200059FD69462846FFF785FF0446C546E1E75C
:106A3000014B00229A607047DCE603200021FFF73B
:106A400025BC0021FFF71ABC10B50446084621708A
:106A5000FFF7F4FB00236360204610BD13B5044626
:106A60000078FFF7EEFF58B9207801904FF6FF71DC
:106A7000FFF7D4FB019802B0BDE81040FFF7DEBF7E
:106A800002B010BD0078FFF7D9BF0000400830B554
:106A90001860002418688842E5B206D90134082C31
:106AA00002D040081860F5E70725024B5B5D1370C4
:106AB00030BD00BF508A0B002DE9F04306468FB071
:106AC00000780C46FFF7BDFF00281BDB3578142249
:106AD000002109A801F06AFC0B23002209A928461D
:106AE000ADF82430FFF7BAFB9DF82D3013B19DF8B7
:106AF0002C5055B10027B946B846012523795DB120
:106B0000C3B100200FB0BDE8F083DDF830809DF800
:106B100034909DF83570F1E7002B35D1A3684345DB
:106B200008D18DF820908DF82170BDF82020A38920
:106B30009A42E6D00023A1688DF80F300A9804AB82
:106B40000DF10F02FFF7A2FF217985B989B9A3687A
:106B500043450ED38DF820908DF82170BDF820208C
:106B6000A3899A4205D1049B434502D1C9E7002974
:106B7000F9D100230193637B00939DF80F20237BC1
:106B80003078FFF773FBBCE7CDE900552B462A466A
:106B90000121F5E708B50078FFF748FBC0B208BD52
:106BA00010B504460068FFF785FC204610BD10B5FF
:106BB0000446006808B1FFF77DFC0023C4E90133F7
:106BC000236010BD38B504460D4600680131FFF75B
:106BD00079FC10B1C4E90005012038BD10B5036887
:106BE000044623B143688B4201D3012010BD2046E7
:106BF000FFF7E8FF0028F9D0A368002BF5D1226841
:106C00001370F2E737B50D46114601920446FFF7BF
:106C1000E5FF019A28B92046FFF7C9FF204603B0D7
:106C200030BDA2602946206801F0B2FB2268A3684B
:106C30000021D154F2E7002313B5C0E90033044624
:106C40008360037341B108460191FEF76DF9019924
:106C500002462046FFF7D6FF204602B010BD88420C
:106C600010B5044605D00B682BB18A681946FFF7AA
:106C7000C9FF204610BDFFF79AFFFAE710B50023C1
:106C80000446C0E9003383600373FFF7E8FF204642
:106C900010BD13B5044659B108460191FEF744F9F9
:106CA000019902462046FFF7ADFF204602B010BD15
:106CB000FFF77DFFF9E70000054B02221A60054B44
:106CC000054A9A600020C3E90000FFF75FBB00BFE0
:106CD000F8E60320ECE603200000FFFF024B1A68F1
:106CE000024B1A60704700BFCCE50320FCE603208E
:106CF00070474174704708B5007CFFF7FFFA20EA3F
:106D0000E07008BD08B5007CFFF7D0FA20EAE0701B
:106D100008BD08B5007CFFF7D9FA40EAE07008BD6D
:106D200008B5007CFFF7CAFA40EAE07008BD007CB5
:106D3000FFF7D4BA37B5457C04462DB1207C03B0AB
:106D4000BDE83040FFF7AABA007C0191FFF7D6FA00
:106D500000280199F2DC284603B030BD10B514219B
:106D60000446FEF726F9204610BD000010B54FF48A
:106D70007A730446084611460022C4E90123044BF5
:106D80002360012320746374FFF7C0FA204610BD0E
:106D90007C8A0B00417470477047704708B500212A
:106DA000007CFFF7DBFA40EAE07008BD08B501217E
:106DB000007CFFF7D3FA40EAE07008BD08B5007C1C
:106DC000FFF7C4FA20EAE07008BD08B5007CFFF7C1
:106DD000B5FA20EAE07008BD13B50446007C0191C5
:106DE000FFF7B4FA0028019901DC607C20B1207C17
:106DF000FFF7BCFA20EAE07002B010BD007CFFF79C
:106E0000BDBA10B514210446FEF7D3F8204610BDD4
:106E100010B54FF47A73044608460021C4E9011303
:106E2000044B23600123207463741146FFF776FA44
:106E3000204610BDAC8A0B00007C0022FFF776BA1A
:106E400010B514220446002101F0B0FA204610BD0E
:106E500010B50F4C88B003A8FFF7F2FF2178BFF3FD
:106E60005B8F11F001010FD120460191FEF7A3F8CD
:106E7000019948B103AA0748FFF7CAFF2046FEF769
:106E80009FF8054801F07EFA024808B010BD00BF27
:106E900000E7032004E70320996D0B0000224068FF
:106EA0001146FFF7B7BA002240681146FFF7D2BA81
:106EB000002240681146FFF7DDBA40680022FFF764
:106EC000D1BA4068002281F00101FFF7BBBA00236C
:106ED00040681A461946FFF7ADBA002340681A46C3
:106EE0001946FFF79FBA002240681146FFF782BAA1
:106EF000406800220221FFF785BA002340681A4645
:106F0000FFF770BA024B04225A60024A1A607047B7
:106F100018E70320DC8A0B00014B1860704700BFA4
:106F2000D4E5032008B50B4B43B1FFF791FF03688D
:106F30001B699847002801DDAFF30080064B43B181
:106F400000F072F903681B699847002801DDAFF370
:106F5000008008BD000000000000000008B5FFF739
:106F6000E1FFFFF7ABF8014B186008BD28E70320ED
:106F70000548064A064908B5121A01F009FA054BF8
:106F8000054A1A6008BD00BF00F4032004F4032082
:106F90005C8C0B0000F403201E1C279A07B500230D
:106FA00000931A466FF07701FFF70AFA03B05DF815
:106FB00004FB000007B543880A2B08D0502B0BD1E7
:106FC000094B1B684BB103B05DF804EB1847FFF7A2
:106FD000E5FF03B05DF804FB002300931A466FF051
:106FE0007701FFF7EDF9F4E724E7032010B5124825
:106FF0000021FFF787FA114B1A68114B9A42114B87
:107000000CBF012200221A7001D0FFF7B1FFFFF779
:107010004DF8044601F0D2F90B4B13B12046AFF303
:10702000008000210848FFF7D5F9BDE81040074867
:107030000021FFF7BBB900BF196F0B0000F403205C
:107040001E1C279A20E7032000000000B56F0B00EC
:10705000232813B502D9002002B010BDA0F10B0304
:10706000022B1AD8174C2178BFF35B8F11F0010166
:107070000BD120460191FDF79EFF019928B11248DE
:10708000FFF7E2FC2046FDF79BFF0F4B1878FFF758
:10709000DDF80028DFD10120DEE7012809D800F063
:1070A00083F80021007CFFF789F880F00100C0B26E
:1070B000D2E709380128EED800F0B6F8007CFFF7D7
:1070C00015F9F2E7B4E60320B8E60320232838B523
:1070D00004460D460AD8FF2908D0FFF7B9FF28B1AA
:1070E00029462046BDE83840FEF7F8BF38BD38B520
:1070F00004460D46FEF7FAFFFF2810D0062804D8F4
:107100004D2323FA00F0C30709D42046FFF7A0FF60
:1071100028B129462046BDE83840FEF7EFBF38BD0C
:1071200010B50446FEF7E2FF031FDBB2012B08D9BE
:107130002046FFF78DFF20B12046BDE81040FEF746
:10714000E5BF002010BD0D2810B504469CBF0E34CD
:10715000A4B22046FFF77CFF50B103212046FEF782
:10716000B5FF032804D12046BDE81040FEF7D6BF86
:10717000002010BDFEF7DABF7047000038B52025AB
:10718000142304460360856005610649284600F023
:107190006FF804496060284600F06AF8E060204615
:1071A00038BD00BF108B0B0030B50E4D2978BFF3F2
:1071B0005B8F11F0010487B011D12846FDF7FBFE6B
:1071C00068B101A8FFF7DAFF01AA21460648FFF7D8
:1071D00017FA2846FDF7F4FE044801F0D3F80248F8
:1071E00007B030BD2CE7032030E7032079710B0096
:1071F0007047000038B5044614252A46002101F0E6
:10720000D5F825804025074925812846258200F0AC
:107210002FF804496060284600F02AF8E060204614
:1072200038BD00BF108B0B0030B50E4D2978BFF371
:107230005B8F11F0010487B011D12846FDF7BBFE2A
:1072400068B101A8FFF7D6FF01AA21460648FFF75B
:107250008DFD2846FDF7B4FE044801F093F802487E
:1072600007B030BD44E7032048E70320F1710B006D
:10727000FDF79DBE00000000F8B52DED028B57EC28
:10728000106B55EC114B00F0CBF8634BB0EE408A1D
:10729000F0EE608A93F9003001332AD022462B4663
:1072A00020462946FDF712FB18BB32463B463046C6
:1072B0003946FDF70BFB002844D10022002330465D
:1072C0003946FDF7D1FAD8B10022002320462946DD
:1072D000FDF7CAFA00283DD145EC104B00F010FF35
:1072E00038B12046294600220023FDF7C7FA0028BE
:1072F0005CD1B0EE480AF0EE680ABDEC028BF8BD36
:10730000B0EE480AF0EE680A00F0FAFE58B351EC0D
:10731000180B00220023FDF7A7FA0028E9D047EC5C
:10732000106B00F0EDFE0028E3D045EC104B00F0B0
:10733000E7FE0028DDD0FFF7D5F822239FED2E8B46
:107340000360D6E72046294600220023FDF78CFA89
:107350000028CED09FED2A8BB0EE480AF0EE680AE6
:10736000BDEC028BF8BD47EC106B00F0C9FE0028A5
:10737000CDD045EC104B00F0C3FE0028C7D053EC35
:10738000182B18EE100A1946FDF7A0FA20BBFFF7DC
:10739000A9F8034622221A6030463946002200230B
:1073A000FDF76CFA48B99FED188BA2E7FFF79AF842
:1073B00021239FED178B03609BE745EC104B00F0FA
:1073C000B3FE224651EC100B2B46FDF74DFA002878
:1073D000E9D19FED0F8B8CE7FFF784F800220023A3
:1073E0002121016010461946FDF700F941EC180B08
:1073F0007FE700BFAFF30080000000000000000046
:10740000000000000000F03F000000000000F07FDE
:10741000000000000000F0FFD0E5032000000000A5
:107420002DE9F04F57EC116B2DED0C8B27F0004A36
:107430005AEA060287B03DD055EC104B724925F050
:107440000048884510EE102AA9462CDC11EE103AAF
:10745000BB4636D08A4526DC6B498A4521D0B9F136
:10746000000F39DB00210091002B51D1664B9A456A
:1074700000F0A280654B9A4500F0B080BBF1804FD0
:1074800000F0C084624B9B4542D1B9F1000F3FDB55
:1074900045EC104B07B0BDEC0C8BBDE8F04F00F095
:1074A00059BD002BDBD008F1404808F5801858EA98
:1074B000020309D19FED500B07B0BDEC0C8BBDE86A
:1074C000F08F0CB9C245C7DD524807B0BDEC0C8B3C
:1074D000BDE8F04F00F020BE4F498A4500F385809B
:1074E000A1F154718A450FDD4FEA2A51A1F2FF3113
:1074F000142940F39B84C1F1340123FA01F000FA0E
:1075000001F1994200F0ED8400210091002BB1D0EF
:1075100045EC104B029200F0E9FD029A5ABBB8F11B
:10752000000F04D0394B29F040429A4223D1BBF1DD
:10753000000F07DA53EC102B34490020FDF756F802
:1075400041EC100BB9F1000FB6DA009B08F140488E
:1075500008F5801858EA030340F08D8453EC102B93
:1075600010461946FCF760FD02460B46FDF73EF853
:1075700041EC100BA0E7009A4FEAD973013B04934A
:10758000134335D0254B9A454CDD03F104739A45DE
:10759000234B40F3DB83984540F36083BBF1000F3E
:1075A00040F3608316A3D3E9002310461946FCF785
:1075B000F3FE41EC100B7FE708F1404303F5801325
:1075C00013433FF477AF164B984540F37A83BBF1F2
:1075D000000FC0F2478347EC106B6DE7BBF1000F63
:1075E000C0F21A8445EC104B66E7022100913BE79C
:1075F00022462B46B4E700BF000000000000F03F29
:107600009C7500883CE4377E0000F07F0000F03F6E
:107610000000E03F148B0B00FFFF3F430000E04100
:10762000FFFFEF3FE44B09EA0303002253B951EC9B
:10763000100BE24BFCF7B0FE41EC100B10EE908A01
:107640006FF034024FEA2853A3F2FF339A18DC4B51
:107650000592C8F3130848F07F54984544F4401449
:1076600007DDD84B984540F3148401320592A4F508
:1076700080149FEDB96B9FEDBA7B53EC162BB0EEE7
:1076800047CAF0EE67CA0025B0EE47DAF0EE67DAD7
:107690005BEC10ABA3465046594643EC1A2BFCF763
:1076A000C3FC53EC1A2B8046894650465946FCF7DA
:1076B000BDFC02460B460020C349FCF797FF41EC96
:1076C0001B0B404653EC1B2B4946FCF765FE41EC77
:1076D000180B0A460146CDE90212002102916410FE
:1076E0004BEC19AB44F00054DDE902AB04F5002388
:1076F0000020591904460D4602460B46504659468D
:10770000FCF74AFE02460B4640464946FCF78CFC15
:1077100053EC1A2B8046894620462946FCF784FC08
:1077200002460B4651EC190BFCF77EFC52465B46B9
:10773000FCF732FE02460B4640464946FCF774FC15
:1077400053EC1B2BFCF728FE53EC182B41EC190BC8
:1077500051EC180BFCF720FE83A3D3E90023044669
:107760000D46FCF719FE82A3D3E90023FCF75EFC6B
:1077700022462B46FCF710FE7FA3D3E90023FCF73B
:1077800055FC22462B46FCF707FE7DA3D3E90023D8
:10779000FCF74CFC22462B46FCF7FEFD7AA3D3E90E
:1077A0000023FCF743FC22462B46FCF7F5FD78A3AB
:1077B000D3E90023FCF73AFC2246804689462B4653
:1077C00020462946FCF7E8FD02460B46404649465E
:1077D000FCF7E2FD524604460D465B4651EC180BA1
:1077E000FCF724FC53EC192BFCF7D6FD22462B4664
:1077F000FCF71CFC5246804689465B46504659467B
:10780000FCF7CAFD02460B4643EC1A2B6F4B0022D5
:10781000FCF70CFC42464B46FCF708FC00240D46E6
:1078200022462B4650465946FCF7B6FD674B82462A
:107830008B46002220462946FCF7F6FB53EC1A2B18
:10784000FCF7F2FB02460B4640464946FCF7ECFBD0
:1078500053EC182BFCF7A0FD22462B4604460D46A0
:1078600051EC190BFCF798FD02460B4620462946C1
:10787000FCF7DCFB8046894642464B46504659465B
:10788000FCF7D4FB44A3D3E90023002004460D46B3
:10789000FCF782FD524641EC190B5B462046294617
:1078A000FCF7C2FB02460B4640464946FCF7BCFBD0
:1078B0003BA3D3E90023FCF76FFD02460B462046AD
:1078C000294614461D4638A3D3E90023FCF764FD7E
:1078D00002460B4620462946FCF7A8FB53EC1D2B1D
:1078E000FCF7A4FB804605988946FCF7EBFC424672
:1078F00082468B464B4651EC190BFCF797FB53EC39
:107900001C2BFCF793FB52465B46FCF78FFB524661
:107910005B46002004460D46FCF786FB53EC1C2B0F
:10792000FCF782FB53EC192BFCF77EFB02460B465F
:1079300040464946FCF778FB009B049A013B134301
:1079400082468B4640F0B6819FED197BB0EE478AA8
:10795000F0EE678A3CE000BF000000000000F03F4E
:107960000000000000000000EF4E454A287ECA3F9C
:1079700065DBC9934A86CD3F01411DA96074D13FA3
:107980004D268F515555D53FFFAB6FDBB66DDB3FB5
:10799000033333333333E33F000000E009C7EE3FE6
:1079A000FD033ADC09C7EE3FF5015B14E02F3EBE54
:1079B000000000000000F0BF0000F07F0000404326
:1079C0008E98030079B60B000000F03F00000840DD
:1079D0000023CDE900670093DDE900893046424687
:1079E0004B463946FCF720FB22462B46FCF7D4FCDD
:1079F00032463B4606460F4650465946FCF7CCFCFD
:107A000002460B4630463946FCF710FB42464B46D1
:107A100006460F4620462946FCF7BEFC04460D46A6
:107A20002B46304639462246FCF700FBC24B9942B2
:107A3000804689468A4640F3188101F13F4303F5A9
:107A4000E003034340F00782A3A3D3E900233046B9
:107A50003946FCF7EBFA02460B464046494690464B
:107A6000994622462B46FCF7DFFA02460B46404673
:107A70004946FCF721FF002840F0ED81CAF30A5384
:107A80004FF48012A3F2FE3342FA03F35344AB499E
:107A9000C3F30A52A2F2FF3241FA02FCC3F313010C
:107AA00041F48011C2F1140241FA02F2002023EAEB
:107AB0000C01BAF1000F00920B46024602DA00995F
:107AC0004942009120462946FCF7AEFA009B1B056F
:107AD000029302460B4604460D4630463946FCF7F3
:107AE000A5FA89464FF000087DA3D3E9002340465C
:107AF0004946FCF751FC22462B4682468B464046BF
:107B00004946FCF791FA02460B4630463946FCF7E7
:107B10008BFA75A3D3E90023FCF73EFC74A3D3E9E9
:107B2000002304460D4640464946FCF735FC024614
:107B30000B4620462946FCF779FA06460F463246A0
:107B40003B4650465946FCF771FA52465B4604469E
:107B50000D46FCF769FA02460B4630463946FCF7FB
:107B600063FA2246804689462B4620462946FCF782
:107B700013FC61A3D3E9002306460F46FCF70CFC77
:107B80005FA3D3E90023FCF74FFA32463B46FCF7EC
:107B900003FC5DA3D3E90023FCF748FA32463B46D9
:107BA000FCF7FAFB5AA3D3E90023FCF73DFA32466F
:107BB0003B46FCF7F1FB58A3D3E90023FCF736FA68
:107BC00032463B46FCF7E8FB02460B462046294678
:107BD000FCF72AFA06460F4632463B46204629461F
:107BE000FCF7DAFB02460B463046394616461F467E
:107BF00000224FF08043FCF717FA02460B4630464E
:107C00003946FCF7F3FC424606460F464B462046F3
:107C10002946FCF7C1FB42464B46FCF707FA0246F1
:107C20000B4630463946FCF7FFF922462B46FCF757
:107C3000FBF902460B4600204149FCF7F5F9029A90
:107C40000B461344B3F5801FC0F24381194653EC31
:107C5000182BFCF7A1FB41EC100B2DE4BBF1000F3E
:107C6000FFF6A0AC9FED2E0B26E4DFF8DCC021F080
:107C70000043634540F3E780324B0B4403430AD192
:107C800022462B46FCF7D0F932463B46FCF70AFE6B
:107C900000283FF4F3AE24A3D3E9002351EC180BE2
:107CA000FCF77AFB20A3D3E90023FCF775FB41EC3A
:107CB000100B01E49FED1E7BB0EE478AF0EE678A61
:107CC00086E6BBF1000FCDDA07F1004300EE106A43
:107CD00000EE903AFFF7F0BBFE822B654715973C0C
:107CE00000000000432EE63FEF39FAFE422EE63F49
:107CF000396CA80C615C20BED0A4BE726937663EA8
:107D0000F16BD2C541BDBB3E2CDE25AF6A56113F9B
:107D100093BDBE166CC1663F3E5555555555C53F82
:107D2000000000000000000059F3F8C21F6EA5011A
:107D3000000000000000F03FFFFF8F40FFFF0F003A
:107D40000000F03F00346F3FFFCB9040984585DB4B
:107D50007D4B98453FF722AC51EC100B7A4B00223B
:107D6000FCF762F968A3D3E9002304460D46FCF74B
:107D700013FB67A3D3E9002382468B46204629469E
:107D8000FCF70AFB714B41EC180B002220462946F8
:107D9000FCF702FB02460B465FA1D1E90001FCF7AC
:107DA00043F922462B46FCF7F7FA02460B46002021
:107DB0006749FCF739F92246804689462B4620461A
:107DC0002946FCF7E9FA02460B4640464946FCF7CD
:107DD000E3FA53A3D3E90023FCF7DEFA02460B468D
:107DE00051EC180BFCF720F98046894642464B4679
:107DF00050465946FCF71AF9002052465B460446A5
:107E00000D4691E522462B4620462946FCF7C4FA4A
:107E100041EC100BFFF750BB4B49002022462B468C
:107E2000FCF7E4FB41EC100BFFF746BB002B44D101
:107E3000C1F114014AFA01F000FA01F151455AD09A
:107E40000093FFF717BB424A93425BDCDDE9001267
:107E50000291009146E634A3D3E9002351EC180BBC
:107E6000FCF79AFA30A3D3E90023FCF795FA41EC2A
:107E7000100BFFF721BB009B012B7FF41DAB10EE15
:107E8000901A10EE102A01F1004343EC102BFFF77B
:107E900013BB9FED277BB0EE47CAF0EE67CA9FED9C
:107EA000267BB0EE47DAF0EE67DA9FED257B4FF4E4
:107EB000802553EC172BFFF7EBBB45EC104B0092E2
:107EC00000F014F9009A002A7FF492AB0092FFF7B9
:107ED00026BB41EC100B009800F0C2F951EC100BDE
:107EE000B5E600F00100C0F102010091002B3FF463
:107EF000C1AAFFF70DBB00F00100C0F1020300931F
:107F0000FFF7B8BA1B15BBE5000000604715F73F47
:107F100044DF5DF80BAE543E555555555555D53F8C
:107F2000FE822B654715F73F9C7500883CE4377E41
:107F30000000004003B8E23F06D0CF43EBFD4C3ECB
:107F4000000000000000F83F0000F03F0000D03FBC
:107F50000000E03F2DE9F041634A55EC104BAA4385
:107F600000F09F80002D10EE10CA2B4654DD29151D
:107F700063D0C3F31303A1F2FF37C90743F480139F
:107F800004D45B0003EBDC734FEA4C0C4FEADC7269
:107F9000002602EB43037F104FEA4C0C4FF0160E05
:107FA00034464FF40012A118994202DC5B1A8C1877
:107FB00016445B00BEF1010E03EBDC734FEA520284
:107FC0004FEA4C0CEFD1754620204FF000420AE0FA
:107FD00044D04FEADC71013801EB43034FEA4C0C0B
:107FE0004FEA520243D0A34202EB0E01F0DD00291A
:107FF00001EB020E0ADBA0461B1B614588BF03F1A3
:10800000FF33ACEB010C15444446E2E7BEF1000F30
:10801000F1DB04F10108EFE725F00042224338D0FC
:10802000002D4ED129464FEADC22153913464FEA7E
:108030004C5C002AF7D0D60250D400205B00DD0251
:10804000044600F10100F9D51A4663460CFA00FC1B
:10805000C0F12000C340091B13438AE76145B8D82B
:10806000002901EB020ED1DB98460023C9E753EA51
:108070000C0310D168087110F30701F17F5101F56D
:10808000001148BF40F0004001EB0753024643ECAB
:10809000102BBDE8F0816A1C16BF681C0136400831
:1080A000E9E710EE102A10EE100A2B462946FCF7DD
:1080B00073F922462B46FBF7B9FF41EC100BBDE8E4
:1080C000F08110EE102A20462946FBF7ADFF02464C
:1080D0000B46FCF78BFA41EC100BDAE763462020E5
:1080E0004FF0FF34B6E700BF0000F07F51EC100BFB
:1080F00010EE102A21F0004343EC102B704700BF14
:1081000082B08DED000B019840F0004000F580102A
:10811000C00F02B0704700BF9FED010B704700BF5A
:10812000000000000000F87FF0B553EC102BC3F303
:108130000A5CACF2FF31132910EE100A83B01C4622
:108140004FEAD37E3ADC002930DB424D45FA01FC90
:1081500003EA0C0515432DD003EA5C0318434FEAEC
:108160005C0C0CD024EA0C0C4FF48024132944FA44
:1081700001F10CBF4FF0004000204CEA01043649E9
:1081800001EBCE0E2346DEE9004502462946204695
:10819000FBF74CFFCDE90001DDE9000122462B464B
:1081A000FBF742FF41EC100B03B0F0BD23F00041A0
:1081B000114324D143EC102B03B0F0BD332908DD6B
:1081C000B1F5806FF6D11946FBF730FF41EC100B8B
:1081D000F2E7ACF2134C4FF0FF3121FA0CF10A42F6
:1081E000E8D010EA51024FEA5103C8D020EA030355
:1081F0004FF0804040FA0CFC43EA0C00BFE7C3F3A9
:1082000013031843144A4342034302EBCE0E1B0BE5
:10821000620C03F40023520443EA02073B46DEE902
:10822000006710EE102A30463946FBF7FFFECDE915
:10823000000132463B46DDE90001FBF7F5FE04F0A4
:10824000004421F00041024641EA040343EC102BB4
:1082500003B0F0BDFFFF0F00188B0B000000000003
:1082600038B553EC102BC3F30A5104469C4689BB26
:1082700010EE101A23F0004C5CEA010129D01946D7
:1082800000223D4B3D4D10EE100AFCF785F8AC4244
:1082900002460B4616DB8C46C1F30A51363921449F
:1082A00040F2FE70814221DC002947DC11F1350FDC
:1082B00034DA4CF250318C4218DC002B26A1D1E983
:1082C000000144DB24A3D3E90023FCF765F841EC6B
:1082D000100B38BD40F2FF708142E0D110EE100A61
:1082E0001946FBF7A3FE41EC100B38BD002B1CA177
:1082F000D1E9000107DB1AA3D3E90023FCF74CF80E
:1083000041EC100B38BD18A1D1E9000114A3D3E949
:108310000023FCF741F841EC100BF3E72CF0FF4C85
:108320002CF4E00C36314CEA015310461946002279
:10833000134BFCF731F841EC100B38BD2CF0FF4C1F
:108340002CF4E00C4CEA015343EC102B38BD08A18F
:10835000D1E90001B6E700BF59F3F8C21F6EA501CD
:108360009C7500883CE4377E9C7500883CE437FEB1
:1083700059F3F8C21F6EA58100005043B03CFFFFC7
:108380000000903C002301461A46184600F044B80D
:108390000A44914200F1FF3300D1704710B511F843
:1083A000014B03F8014F9142F9D110BD024403463D
:1083B000934200D1704703F8011BF9E738B5104B21
:1083C0001D68AB6B0446B3B91820FEF76BF8024684
:1083D000A86320B90B4B0C484221FEF78BF80B49E0
:1083E0000B4BC0E900130B4B83600B2383810021EF
:1083F0000120C2E90401AB6B00221C615A6138BD47
:10840000D4E50320288B0B003F8B0B000E33CDAB44
:1084100034126DE6ECDE05002DE9F843DFF8B88094
:108420000646D8F800001F460D46914600F056F863
:10843000254B1C6834B9254C1C60254B13B11B68B7
:10844000C4F8883063681F2B07DDD8F8000000F0FF
:1084500047F84FF0FF30BDE8F8834EB3D4F88800FA
:1084600088B91C4B23B9D8F8000000F038F8F0E7C1
:108470004FF48470FEF716F80028F4D00023C0E90A
:108480004033C4F88800636840F8239001229A4082
:1084900000EB8301D0F800311343C0F80031022E05
:1084A000C1F8807002BFD0F804311343C0F8043122
:1084B0006368D8F800005A1C0233626044F8235005
:1084C00000F00EF80020C6E7E8E703205CE7032091
:1084D00000000000A5640B0038E6032070477047D9
:1084E00070470000394F0B00754F0B009D4F0B007C
:1084F000A14F0B00000000004C504F3A20256C7536
:1085000000526174696F3A202566252500436F6E1D
:1085100063656E74726174696F6E3A2025662070AF
:1085200063732F4C004E6F6E650044616E67657219
:10853000004869676820506F6C6C7574696F6E00D5
:108540004C6F7720506F6C6C7574696F6E0046725B
:10855000657368204169720054656D703A2000436C
:108560000048756D69646974793A200050726573CA
:10857000733A20002068506100447573743A2000FB
:10858000416972205175616C6974792053656E730D
:108590006F722072656164792E0041697220517595
:1085A000616C6974792053656E736F722045525205
:1085B0004F522100424D453238302053656E736F63
:1085C000722072656164792E00424D453238302048
:1085D00053656E736F72204552524F5221005061A5
:1085E000727469636C6500416972205175616C69D0
:1085F0007479004D6F6E69746F7200416972205119
:1086000075616C6974793A2025730054656D703A10
:108610002025640050726573737572653A20256475
:108620000048756D69646974793A2025640000001A
:108630000000000002000000010000000300000034
:1086400064656661756C7420004D5342004C534262
:10865000003C53504953657474696E6773206465B8
:108660006661756C743E003C53504953657474697F
:108670006E67732025732575202573204D4F444563
:1086800025753E000000000000000000C9550B00E9
:108690009D550B009F550B000000000000000000DE
:1086A00000005F000000000000000700070000005D
:1086B00000147F147F14000000242A7F2A12000077
:1086C0000023130864620000003649552250000060
:1086D0000000050300000000001C22410000000013
:1086E0000041221C0000000000082A1C2A0800008B
:1086F0000008083E0808000000A06000000000001C
:108700000008080808080000006060000000000081
:108710000020100804020000003E5149453E0000C0
:108720000000427F400000000062514949460000BD
:108730000022414949360000001814127F10000041
:108740000027454545390000003C4A4949300000B2
:10875000000171090503000000364949493600004F
:1087600000064949291E00000000363600000000BE
:108770000000AC6C00000000000814224100000062
:108780000014141414140000004122140800000006
:10879000000201510906000000324979413E000003
:1087A000007E0909097E0000007F49494936000022
:1087B000003E414141220000007F4141221C000057
:1087C000007F494949410000007F09090901000073
:1087D000003E414151720000007F0808087F000000
:1087E00000417F4100000000002040413F010000A7
:1087F000007F081422410000007F404040400000FC
:10880000007F020C027F0000007F0408107F000040
:10881000003E4141413E0000007F09090906000079
:10882000003E4151215E0000007F091929460000E9
:1088300000264949493200000001017F0101000082
:10884000003F4040403F0000001F2040201F00002C
:10885000003F4038403F00000063140814630000EC
:1088600000030478040300000061514945430000FF
:10887000007F4141000000000002040810200000B9
:108880000041417F000000000004020102040000DA
:108890000080808080800000000102040000000051
:1088A0000020545454780000007F484444380000AD
:1088B000003844442800000000384444487F000049
:1088C000003854545418000000087E0902000000CB
:1088D0000018A4A4A47C0000007F08040478000011
:1088E00000007D00000000000080847D000000008A
:1088F000007F10284400000000417F40000000007D
:10890000007C041804780000007C08047C0000004F
:10891000003844443800000000FC24241800000003
:1089200000182424FC00000000007C080400000063
:10893000004854542400000000047F44000000005C
:10894000003C40407C000000001C2040201C000037
:10895000003C4030403C0000004428102844000007
:10896000001CA0A07C000000004464544C440000A3
:10897000000836410000000000007F0000000000F9
:108980000041360800000000000201010201000061
:1089900000020505020000000000000000000000C9
:1089A0008B650B0081650B0077650B006D650B0017
:1089B00061650B0055650B00E5670B00ED670B006B
:1089C00049650B0041650B0037650B002D650B00F9
:1089D0001D680B000000000000000000A9650B00EE
:1089E000F3650B00CB650B00AB650B00D3650B008B
:1089F000DB650B00E3650B00EB650B00000000007E
:108A000000000000B5660B00A5660B00A7660B0012
:108A1000617070000000000000000000A5670B00FE
:108A2000AF670B00B9670B00C3670B00CD670B0086
:108A3000D9670B00E5670B00ED670B00F5670B00CE
:108A400001680B0009680B0013680B001D680B0020
:108A5000000810182028303825592D256D2D256443
:108A60005425483A254D3A2553257A00617363749D
:108A7000696D65000000000000000000F16C0B0053
:108A80005D6D0B00356D0B0009690B00056D0B006A
:108A9000216D0B00136D0B002F6D0B00F36C0B00A1
:108AA000F76C0B0000000000000000009B6D0B0045
:108AB000036E0B00D96D0B0009690B00CB6D0B0029
:108AC0009D6D0B00AD6D0B00FD6D0B00BD6D0B00C2
:108AD000956D0B000000000000000000FB6E0B0015
:108AE000F16E0B00E76E0B009D6E0B00DB6E0B0052
:108AF000CF6E0B00E5670B00ED670B00C36E0B003C
:108B0000BB6E0B00B16E0B00A76E0B001D680B0057
:108B100000000000000000000000000000003043E2
:108B200000000000000030C35245454E54206D61E6
:108B30006C6C6F6320737563636565646564002F97
:108B4000746D702F6A656E6B696E732D4743432D8C
:108B500031302D706970656C696E652D34385F3207
:108B6000303230313132345F3136303631383036B0
:108B700033392F7372632F6E65776C69622F6E6560
:108B8000776C69622F6C6962632F7374646C6962BD
:108B90002F72616E642E6300C1540B001D650B00C3
:108BA00095650B0095670B00F5680B00316A0B00AB
:0C8BB000B96C0B00DD6C0B00056F0B00B6
:088BBC0098C0FF7F01000000DA
:108BC400040000001400000003000000474E55009C
:108BD4007EA35A813A436BB56CD7E5E24485B04134
:048BE4002EB9D7FBD4
:108BE800070000006C8A0B00FF000000D8E5032096
:108BF800000000000000000000000000000000006D
:108C0800000000000000000000000000000000005C
:108C1800000000000000000000000000000000004C
:108C2800000000000000000000000000000000003C
:108C3800000000000000000000000000000000002C
:108C4800000000000000000000000000000000001C
:048C5800ECE7032022
:048C5C000000000014
:108C660000000102030405060708090A0B0C0D0E95
:108C76000F101112131415161718191A1B1C1D1E86
:048C86001F20280083
:048C8A0078563412D2
:04000003B0004020E9
:00000001FF
