:02000002B0004C
:1040000000400B0052980B00000006000C00050257
:0840100004018C130000000004
:04401800F88F0B0012
:1040200081F0004102E000BF83F0004330B54FEA69
:1040300041044FEA430594EA050F08BF90EA020FD6
:104040001FBF54EA000C55EA020C7FEA645C7FEA69
:10405000655C00F0E2804FEA5454D4EB5555B8BF8C
:104060006D420CDD2C4480EA020281EA030382EAFD
:10407000000083EA010180EA020281EA0303362D8F
:1040800088BF30BD11F0004F4FEA01314FF4801C62
:104090004CEA113102D0404261EB410113F0004F74
:1040A0004FEA03334CEA133302D0524263EB43032B
:1040B00094EA050F00F0A780A4F10104D5F1200EC9
:1040C0000DDB02FA0EFC22FA05F2801841F1000124
:1040D00003FA0EF2801843FA05F359410EE0A5F1F8
:1040E00020050EF1200E012A03FA0EFC28BF4CF029
:1040F000020C43FA05F3C01851EBE37101F00045DF
:1041000007D54FF0000EDCF1000C7EEB00006EEBEB
:104110000101B1F5801F1BD3B1F5001F0CD3490875
:104120005FEA30004FEA3C0C04F101044FEA4452CC
:1041300012F5800F80F09A80BCF1004F08BF5FEA53
:10414000500C50F1000041EB045141EA050130BD33
:104150005FEA4C0C404141EB0101013C28BFB1F545
:10416000801FE9D291F0000F04BF01460020B1FA90
:1041700081F308BF2033A3F10B03B3F120020CDA63
:104180000C3208DD02F1140CC2F10C0201FA0CF041
:1041900021FA02F10CE002F11402D8BFC2F1200CA6
:1041A00001FA02F120FA0CFCDCBF41EA0C0190405C
:1041B000E41AA2BF01EB0451294330BD6FEA0404A5
:1041C0001F3C1CDA0C340EDC04F11404C4F1200290
:1041D00020FA04F001FA02F340EA030021FA04F3A2
:1041E00045EA030130BDC4F10C04C4F1200220FAF9
:1041F00002F001FA04F340EA0300294630BD21FA37
:1042000004F0294630BD94F0000F83F4801306BFFC
:1042100081F480110134013D4EE77FEA645C18BFF0
:104220007FEA655C29D094EA050F08BF90EA020F87
:1042300005D054EA000C04BF1946104630BD91EA7F
:10424000030F1EBF0021002030BD5FEA545C05D182
:104250004000494128BF41F0004130BD14F58004C1
:104260003CBF01F5801130BD01F0004545F0FE4135
:1042700041F470014FF0000030BD7FEA645C1ABF6A
:10428000194610467FEA655C1CBF0B46024650EAA1
:10429000013406BF52EA033591EA030F41F40021CD
:1042A00030BD00BF90F0000F04BF0021704730B553
:1042B0004FF4806404F132044FF000054FF0000128
:1042C00050E700BF90F0000F04BF0021704730B5E9
:1042D0004FF4806404F1320410F0004548BF4042BE
:1042E0004FF000013EE700BF42004FEAE2014FEA13
:1042F00031014FEA02701FBF12F07F4393F07F4FEE
:1043000081F06051704732F07F4208BF704793F0F0
:104310007F4F04BF41F40021704730B54FF4607403
:1043200001F0004521F000411CE700BF50EA010206
:1043300008BF704730B54FF000050AE050EA0102AF
:1043400008BF704730B511F0004502D5404261EB1F
:1043500041014FF4806404F132045FEA915C3FF460
:10436000D8AE4FF003025FEADC0C18BF03325FEAFD
:10437000DC0C18BF033202EBDC02C2F1200300FAAE
:1043800003FC20FA02F001FA03FE40EA0E0021FAD3
:1043900002F11444BDE600BF70B54FF0FF0C4CF4C1
:1043A000E06C1CEA11541DBF1CEA135594EA0C0F73
:1043B00095EA0C0F00F0DEF82C4481EA030621EAAE
:1043C0004C5123EA4C5350EA013518BF52EA0335E9
:1043D00041F4801143F4801338D0A0FB02CE4FF09B
:1043E0000005E1FB02E506F00042E0FB03E54FF0CB
:1043F0000006E1FB03569CF0000F18BF4EF0010EC3
:10440000A4F1FF04B6F5007F64F5407404D25FEABE
:104410004E0E6D4146EB060642EAC62141EA555171
:104420004FEAC52040EA5E504FEACE2EB4F1FD0CB3
:1044300088BFBCF5E06F1ED8BEF1004F08BF5FEA31
:10444000500E50F1000041EB045170BD06F00046E3
:1044500046EA010140EA020081EA0301B4EB5C0490
:10446000C2BFD4EB0C0541EA045170BD41F4801188
:104470004FF0000E013C00F3AB8014F1360FDEBFAD
:10448000002001F0004170BDC4F10004203C35DA89
:104490000C341BDC04F11404C4F1200500FA05F30C
:1044A00020FA04F001FA05F240EA020001F00042AD
:1044B00021F0004110EBD37021FA04F642EB060123
:1044C0005EEA430E08BF20EAD37070BDC4F10C044D
:1044D000C4F1200500FA04F320FA05F001FA04F211
:1044E00040EA020001F0004110EBD37041F10001FD
:1044F0005EEA430E08BF20EAD37070BDC4F1200508
:1045000000FA05F24EEA020E20FA04F301FA05F26F
:1045100043EA020321FA04F001F0004121FA04F217
:1045200020EA020000EBD3705EEA430E08BF20EAE7
:10453000D37070BD94F0000F0FD101F00046400021
:1045400041EB010111F4801F08BF013CF7D041EAA3
:10455000060195F0000F18BF704703F000465200A7
:1045600043EB030313F4801F08BF013DF7D043EA78
:104570000603704794EA0C0F0CEA135518BF95EA2E
:104580000C0F0CD050EA410618BF52EA4306D1D1B5
:1045900081EA030101F000414FF0000070BD50EAD4
:1045A000410606BF1046194652EA430619D094EA5E
:1045B0000C0F02D150EA013613D195EA0C0F05D148
:1045C00052EA03361CBF104619460AD181EA03019C
:1045D00001F0004141F0FE4141F470014FF0000054
:1045E00070BD41F0FE4141F4780170BD70B54FF0EF
:1045F000FF0C4CF4E06C1CEA11541DBF1CEA13556F
:1046000094EA0C0F95EA0C0F00F0A7F8A4EB050450
:1046100081EA030E52EA03354FEA013100F0888047
:104620004FEA03334FF0805545EA131343EA126310
:104630004FEA022245EA111545EA10654FEA0026C5
:104640000EF000419D4208BF964244F1FD0404F57E
:10465000407402D25B084FEA3202B61A65EB0305DA
:104660005B084FEA32024FF480104FF4002CB6EB97
:10467000020E75EB030E22BFB61A754640EA0C0017
:104680005B084FEA3202B6EB020E75EB030E22BF57
:10469000B61A754640EA5C005B084FEA3202B6EB98
:1046A000020E75EB030E22BFB61A754640EA9C0057
:1046B0005B084FEA3202B6EB020E75EB030E22BF27
:1046C000B61A754640EADC0055EA060E18D04FEAE5
:1046D000051545EA16754FEA06164FEAC30343EA85
:1046E00052734FEAC2025FEA1C1CC0D111F4801F52
:1046F0000BD141EA00014FF000004FF0004CB6E74B
:1047000011F4801F04BF01430020B4F1FD0C88BFE9
:10471000BCF5E06F3FF6AFAEB5EB030C04BFB6EBF4
:10472000020C5FEA500C50F1000041EB045170BDE7
:104730000EF0004E4EEA113114EB5C04C2BFD4EB14
:104740000C0541EA045170BD41F480114FF0000E98
:10475000013C90E645EA060E8DE60CEA135594EA14
:104760000C0F08BF95EA0C0F3FF43BAF94EA0C0F17
:104770000AD150EA01347FF434AF95EA0C0F7FF48C
:1047800025AF104619462CE795EA0C0F06D152EAE0
:1047900003353FF4FDAE1046194622E750EA4106C4
:1047A00018BF52EA43067FF4C5AE50EA41047FF4D5
:1047B0000DAF52EA43057FF4EBAE12E74FF0FF3C3A
:1047C00006E000BF4FF0010C02E000BF4FF0010C0B
:1047D0004DF804CD4FEA410C7FEA6C5C4FEA430C84
:1047E00018BF7FEA6C5C1BD001B050EA410C0CBFD3
:1047F00052EA430C91EA030F02BF90EA020F002035
:10480000704710F1000F91EA030F58BF994208BF9B
:1048100090422CBFD8176FEAE37040F00100704758
:104820004FEA410C7FEA6C5C02D150EA013C07D1AF
:104830004FEA430C7FEA6C5CD6D152EA033CD3D0FA
:104840005DF8040B704700BF8446104662468C46F4
:104850001946634600E000BF01B5FFF7B7FF002827
:1048600048BF10F1000F01BD4DF808EDFFF7F4FF50
:104870000CBF012000205DF808FB00BF4DF808EDDB
:10488000FFF7EAFF34BF012000205DF808FB00BFFE
:104890004DF808EDFFF7E0FF94BF012000205DF820
:1048A00008FB00BF4DF808EDFFF7CEFF94BF0120D5
:1048B00000205DF808FB00BF4DF808EDFFF7C4FFCE
:1048C00034BF012000205DF808FB00BF4FEA410C17
:1048D0007FEA6C5C02D150EA013C0AD14FEA430CFA
:1048E0007FEA6C5C02D152EA033C02D14FF0000037
:1048F00070474FF0010070474FEA4102B2F1E043C8
:1049000024BFB3F5001CDCF1FE5C0DD901F0004CB6
:104910004FEAC0024CEA5070B2F1004F40EB830006
:1049200008BF20F00100704711F0804F21D113F132
:104930003872BCBF01F00040704741F480114FEA6B
:104940005252C2F11802C2F1200C10FA0CF320FAF4
:1049500002F018BF40F001004FEAC1234FEAD32311
:1049600003FA0CFC40EA0C0023FA02F34FEA43037B
:10497000CCE77FEA625307D150EA01331EBF4FF004
:10498000FE4040F44000704701F0004040F0FE401F
:1049900040F40000704700BF80F0004002E000BF1C
:1049A00081F0004142001FBF5FEA410392EA030F1A
:1049B0007FEA226C7FEA236C6AD04FEA1262D2EB64
:1049C0001363C1BFD218414048404140B8BF5B4269
:1049D000192B88BF704710F0004F40F4000020F002
:1049E0007F4018BF404211F0004F41F4000121F018
:1049F0007F4118BF494292EA030F3FD0A2F1010262
:104A000041FA03FC10EB0C00C3F1200301FA03F19F
:104A100000F0004302D5494260EB4000B0F5000FC2
:104A200013D3B0F1807F06D340084FEA310102F181
:104A30000102FE2A51D2B1F1004F40EBC25008BF33
:104A400020F0010040EA03007047490040EB0000FD
:104A5000013A28BFB0F5000FEDD2B0FA80FCACF1FE
:104A6000080CB2EB0C0200FA0CF0AABF00EBC2502B
:104A700052421843BCBFD0401843704792F0000F19
:104A800081F4000106BF80F400000132013BB5E76C
:104A90004FEA41037FEA226C18BF7FEA236C21D0E2
:104AA00092EA030F04D092F0000F08BF0846704747
:104AB00090EA010F1CBF0020704712F07F4F04D115
:104AC000400028BF40F00040704712F100723CBF28
:104AD00000F50000704700F0004343F0FE4040F452
:104AE000000070477FEA226216BF08467FEA236310
:104AF0000146420206BF5FEA412390EA010F40F4FB
:104B0000800070474FF0000304E000BF10F0004346
:104B100048BF40425FEA000C08BF704743F096432D
:104B200001464FF000001CE050EA010208BF704748
:104B30004FF000030AE000BF50EA010208BF7047CF
:104B400011F0004302D5404261EB41015FEA010CE4
:104B500002BF84460146002043F0B64308BFA3F1DC
:104B60008053A3F50003BCFA8CF2083AA3EBC253BE
:104B700010DB01FA02FC634400FA02FCC2F12002DD
:104B8000BCF1004F20FA02F243EB020008BF20F014
:104B90000100704702F1200201FA02FCC2F120027A
:104BA00050EA4C0021FA02F243EB020008BF20EA6F
:104BB000DC7070477BB972B90029BEBF00204FF08E
:104BC000004106E008BF00281CBF6FF000414FF015
:104BD000FF3000F0A7B9ADF1080C6DE904CE002953
:104BE00009DB002B1ADB00F035F8DDF804E0DDE925
:104BF000022304B07047404261EB4101002B1BDBF4
:104C000000F028F8DDF804E0DDE9022304B04042BA
:104C100061EB4101524263EB43037047524263EB45
:104C2000430300F017F8DDF804E0DDE9022304B0E7
:104C3000404261EB41017047524263EB430300F095
:104C400009F8DDF804E0DDE9022304B0524263EB29
:104C5000430370472DE9F047089D04468E46002B1C
:104C60004DD18A42944669D9B2FA82F252B101FA20
:104C700002F3C2F1200120FA01F10CFA02FC41EA30
:104C8000030E94404FEA1C48210CBEFBF8F61FFAB5
:104C90008CF708FB16E341EA034306FB07F1994250
:104CA0000AD91CEB030306F1FF3080F01F81994203
:104CB00040F21C81023E63445B1AA4B2B3FBF8F0DD
:104CC00008FB103344EA034400FB07F7A7420AD964
:104CD0001CEB040400F1FF3380F00A81A74240F28C
:104CE00007816444023840EA0640E41B00261DB1F7
:104CF000D4400023C5E900433146BDE8F0878B422C
:104D000009D9002D00F0EF800026C5E900013046EA
:104D10003146BDE8F087B3FA83F6002E4AD18B42C4
:104D200002D3824200F2F980841A61EB030301206E
:104D30009E46002DE0D0C5E9004EDDE702B9FFDE5A
:104D4000B2FA82F2002A40F09280A1EB0C014FEA05
:104D50001C471FFA8CFE0126200CB1FBF7F307FB62
:104D6000131140EA01410EFB03F0884208D91CEB05
:104D7000010103F1FF3802D2884200F2CB804346A2
:104D8000091AA4B2B1FBF7F007FB101144EA014481
:104D90000EFB00FEA64508D91CEB040400F1FF3110
:104DA00002D2A64500F2BB800846A4EB0E0440EAFE
:104DB00003409CE7C6F12007B34022FA07FC4CEA07
:104DC000030C20FA07F401FA06F31C43F9404FEAFA
:104DD0001C4900FA06F3B1FBF9F8200C1FFA8CFE0F
:104DE00009FB181140EA014108FB0EF0884202FA63
:104DF00006F20BD91CEB010108F1FF3A80F0888024
:104E0000884240F28580A8F102086144091AA4B2E0
:104E1000B1FBF9F009FB101144EA014100FB0EFE61
:104E20008E4508D91CEB010100F1FF346CD28E4590
:104E30006AD90238614440EA0840A0FB0294A1EB21
:104E40000E01A142C846A64656D353D05DB1B3EB7E
:104E5000080261EB0E0101FA07F722FA06F3F140AE
:104E60001F43C5E9007100263146BDE8F087C2F155
:104E70002003D8400CFA02FC21FA03F391400143CD
:104E80004FEA1C471FFA8CFEB3FBF7F007FB103606
:104E90000B0C43EA064300FB0EF69E4204FA02F4B2
:104EA00008D91CEB030300F1FF382FD29E422DD905
:104EB000023863449B1B89B2B3FBF7F607FB16333A
:104EC00041EA034106FB0EF38B4208D91CEB0101BA
:104ED00006F1FF3816D28B4214D9023E6144C91A3A
:104EE00046EA004638E72E46284605E70646E3E64A
:104EF0001846F8E64B45A9D2B9EB020864EB0C0E54
:104F00000138A3E74646EAE7204694E74046D1E762
:104F1000D0467BE7023B614432E7304609E7644410
:104F2000023842E7704700BF034613F8012B002AFE
:104F3000FBD1181A0138704709480A49884208B558
:104F400005D0094A824202D0121A03F08DFF0748A9
:104F5000074A0021121A03F095FF014808BD00BF5F
:104F6000C4E50320B0970B0038E6032038E60320A1
:104F7000F0E7032070B5074E074C02F0A1FDA41B1B
:104F8000A4080025AC4200D170BD56F8043B9847F8
:104F90000135F7E760970B0084970B0000F0B2B97A
:104FA00008B500F0F3FABDE8084002F041BD01F099
:104FB000F1BC01F0EFBC01F0F5BC0078B0FA80F074
:104FC00040097047012303707047000010B5034B80
:104FD0000360044601F06AF9204610BDA0910B0061
:104FE00010B50446FFF7F2FF20464FF49871FFF723
:104FF000E2FF204610BD0EB403B503AB012153F808
:10500000042B019302F04DFA02B05DF804EB03B0FB
:1050100070470000000000002DE9F0472DED028BE5
:10502000494C4A4B2268002A77D11B6823602068CC
:10503000474DDFF830A1FFF735F939A3D3E9002355
:10504000FFF7D4FAFFF758FC2860FFF74DF99FED02
:10505000361B41EC100B02F07BFE95ED008A18EE3A
:10506000100A57EC106BFFF73FF931A3D3E9002387
:105070008046894630463946FFF78EF94246064655
:105080000F464B4640464946FFF786F92AA3D3E927
:105090000023FFF781F902460B4630463946FEF7FA
:1050A000C3FFDFED2C7A68EE277A064617EE900AEA
:1050B0000F46FFF719F902460B4630463946FEF710
:1050C000B5FF1FA3D3E90023FEF7B0FFFFF714FCE1
:1050D000CAF8000002F026FC22681F49FFF78BFF88
:1050E00002F020FC04462868FFF7FEF802460B4653
:1050F00020461A49FFF77FFF02F014FC0446DAF855
:105100000000FFF7F1F802460B4620461449FFF76E
:1051100072FFBDEC028BBDE8F0871A6087E700BF25
:1051200000000000804F1241000000000000084015
:105130009A9999999999F13F6666666666660E40F6
:10514000D7A3703D0AD7E33FACE60320A8E60320CF
:10515000B0E60320000002440C900B0015900B00F9
:1051600021900B009CE6032038B50446114800F05E
:10517000D7FA11490546204602F0C7FA0F4B1B68C3
:10518000AB4205D10E49204602F0EDFA204638BD6B
:105190000C4B1B68AB4201D10B49F4E70B4B1B686E
:1051A000AB4201D10A49EEE70A4B1B68AB42EDD195
:1051B0000949E8E73CE6032039900B00A8910B0071
:1051C0003E900B00B0910B0045900B00AC910B0092
:1051D00054900B00B4910B0062900B0070B5064622
:1051E0000E480D46144600F0ADFDBDEEC00A0B485A
:1051F00086ED000A00F020FE9FED097A0748C0EE18
:10520000077AFDEEE77AC5ED007A00F0CBFDBDEE42
:10521000C00A012084ED000A70BD00BF58E60320DB
:105220000000C84270B51E4605462D480C4600F0E9
:10523000BDFF03222A48002100F073FF316828488F
:1052400000F0D5FF00222648022100F06AFF254920
:10525000234800F0CCFF2946214800F0D5FF224921
:105260001F4800F0C4FF00221D48032100F059FF31
:105270001E491B4800F0BBFF214619481C4C00F09A
:10528000C3FF1C49164800F0B2FF15480022042154
:1052900000F047FF1849124800F0A9FF94ED007A8A
:1052A000F7EE007AB4EEE77AF1EE10FA17DD00229D
:1052B0000B48052100F035FF1049094800F097FF21
:1052C000D4ED007A0648FDEEE77A17EE901A00F06A
:1052D0009BFFBDE870400A49014800F088BF70BDDF
:1052E000C0E603206C900B0073900B0075900B00D0
:1052F0009CE603201F900B0080900B008D900B000C
:1053000032900B0008B502F00DFB4FF4165102F07D
:10531000FDFA0021042002F043FC01F027F9284B9C
:105320001860284B0121188802F03AFC264800F04A
:10533000CAF900283BD002F0F5FA244902F089F8B6
:10534000234800F0A2FE002835D002F0EBFA2149F4
:1053500002F07FF802F092FC01F0CEFE1E4800F051
:10536000C3FE1D4800F022FF1B4800F084FF1A48CE
:1053700000F0CCFE00221848022100F0D2FE1749AE
:10538000154800F034FF00221348032100F0C9FE45
:105390001349114800F02BFF0F480421002200F0B0
:1053A000C0FEBDE808400F490B4800F020BF02F0E6
:1053B000B9FA0D49C2E702F0B5FA0C49C8E700BFD7
:1053C000A4E60320C4E503203CE6032094900B00F0
:1053D00058E60320C8900B00C0E60320F2900B00B3
:1053E000FB900B0007910B00AE900B00DD900B00C3
:1053F00037B504461546019101F064F80199012280
:10540000204600F0CDFF20463A2100F07DFF044900
:105410002A46204603B0BDE8304000F0B4BF00BFCC
:1054200085910B0013B504468DED000A019101F042
:1054300049F801990122204600F0B2FF20463A21A6
:1054400000F062FF9DED000A204602B0BDE810406A
:1054500001F05CB8F0B5D3B007460E46154612A968
:105460004FF4807206A81C4600F03CFF394B0693AF
:105470007D227B2106A801F030F837493A4606A87C
:10548000FFF7B6FF3549324606A8FFF7B1FF2A46B7
:10549000334906A8FFF7ACFF214602A802F058F9ED
:1054A00006A801F00FF801222E4906A800F078FFA7
:1054B0003A2106A800F028FF0299012206A800F070
:1054C0006FFF02A802F0D6F8274B1C68F4B106A8BB
:1054D00000F0F8FF0122254906A800F061FF3A21FB
:1054E00006A800F011FF2249224606A800F04BFF53
:1054F000204B214993ED000A06A8FFF793FF1F4BAD
:105500001F4993ED000A06A8FFF78CFF06A800F0DC
:1055100009FF1C4B079A1B788DF800301A493C2371
:1055200002A801F001FC039C7CB16368013B63604D
:105530005BB9236820469B689847A368013BA3603A
:105540001BB923682046DB68984706A8FFF73EFD95
:1055500053B0F0BDA0910B000F910B0014910B0004
:105560001D910B0026910B00ACE6032032910B003D
:1055700011900B00B0E603203B910B009CE603204A
:1055800046910B0038E6032059910B0030B5394C99
:10559000394D20888FB0012102F013FB4FF47A704F
:1055A00001F040FA2088354C002102F00AFB4FF44C
:1055B0007A7001F037FA0021042002F045FB304BED
:1055C000186023681844206000F0D0FF2B68C01AD0
:1055D00047F23053984206D9FFF71EFD002323609F
:1055E00000F0C4FF286006A8FFF7BEFD02F09AF99C
:1055F000069A2449FFF7FFFC05AA04A903A8FFF7B0
:10560000EDFD02F08FF9039A1F49FFF7F4FC02F059
:1056100089F9049A1D49FFF7EEFC02F083F9059A17
:105620001B49FFF7E8FCDDE90425039C019206A96C
:105630000AA802F08DF80AAB019A29462046FFF726
:10564000F1FD0AA802F016F8DDE90425039C019299
:1056500006A90AA802F07CF8019A0AAB294620465E
:10566000FFF7F8FE0AA802F005F806A802F002F813
:105670000FB030BDC4E50320A4E60320ACE6032050
:10568000A0E6032062910B0072910B007B910B004E
:1056900088910B0008B5064B064801221A701121AB
:1056A00000F00CF8BDE80840034800F0A7B800BFC0
:1056B00038E603203CE6032058E603200022C0E938
:1056C00004220160704710B50446008802F0A5FA74
:1056D00040F21233A0F10B029A4207D8C4E901004C
:1056E000E06000F043FFA061012010BD0020FCE756
:1056F00010B5044600F03AFFA369C01A074B984260
:105700000AD9D4E9043293FBF2F3E36000F02EFFF0
:105710000023C4E90433A06110BD00BF20A107002D
:1057200010B5836843600446008802F076FA236966
:10573000A060184463692061013363612046FFF76C
:10574000D7FFD4E90112511AB1F5C87F10DCB2F5C8
:105750002F7F0DDCE368D31A962B0BDCC82902DD02
:10576000B2F52F7F08D1322BCCBF0220032010BD11
:105770000020FCE70120FAE70220F8E7704710B5A7
:1057800010210446FFF717FC204610BD0EB403B5E8
:1057900003AB002153F8042B019301F082FE02B009
:1057A0005DF804EB03B0704773B5044608462279F0
:1057B000A36832B1A3B90B4902B0BDE8704001F053
:1057C00035BE094A267B094D0949647B012E18BF65
:1057D0002946CDE900140749FFF7D8FF02B070BD94
:1057E000054AEFE7C9910B0072900B00C5910B00C1
:1057F000C1910B00DF910B00B8910B004FF0FF330C
:105800000361704713B50B4C2178BFF35B8F11F028
:1058100001010BD120460191FFF7CFFB019928B17F
:10582000054801F07BFE2046FFF7CCFB024802B0A2
:1058300010BD00BFB4E60320B8E6032008B5FFF7AB
:10584000E1FFBDE8084001F087BE07B50190FFF712
:10585000D9FF019903B05DF804EB01F097BE2DE983
:10586000F04190F91330013305460F4606D1FFF79A
:10587000C9FF3946BDE8F04101F0F6BE0024072615
:105880004FF0010895F91300002180B202F099F958
:1058900095F9110008FA06F1394080B202F091F949
:1058A00095F91300012180B202F08BF995F91200ED
:1058B000640080B2E4B202F09DF908B144F0010442
:1058C000013EDFD22046BDE8F08100007FB590F9AF
:1058D0001030013304460E46154613D10179006895
:1058E00001F03CFC2068036831469B6898472068BB
:1058F000036829469B689847206804B0BDE870405B
:1059000001F037BC90F9133001330CD1164B0093E2
:1059100000238DF80430154B029368460123ADF83F
:105920000C30FFF792FF94F91000002180B202F0D2
:1059300048F906F07F012046FFF791FF29462046EF
:10594000FFF78DFF94F91000012180B202F039F9C0
:1059500094F91330013304D104B0BDE87040FFF76F
:105960006DBF04B070BD00BF04920B0020A1070002
:10597000F8B5DB0002F0070203F03803134343EAF3
:1059800081139DF8186080F83C3090F840309DF805
:105990001C509DF8207066F3471380F84030ED00EE
:1059A00090F8383007F0070705F0380523F03F037B
:1059B0003D4304461D4380F8385006F00702F221AB
:1059C000FFF784FF94F83820C2F3C20302F0070106
:1059D0009B0043EA411343EAD2122046F521FFF728
:1059E00075FF94F83C20C2F3C20302F007019B004C
:1059F00043EA411343EA92122046F421BDE8F840FD
:105A0000FFF764BF30B590F91030013385B004461C
:105A10000D4618D10179006801F0A0FB20680368E9
:105A200029469B689847206801F0A3FB21792068EC
:105A3000012201F090FB206803685B699847C5B2BA
:105A4000284605B030BD90F9133001330CD1154B09
:105A5000009300238DF80430134B02936846012312
:105A6000ADF80C30FFF7F1FE94F91000002180B280
:105A700002F0A7F845F080012046FFF7F0FE002174
:105A80002046FFF7ECFE054694F91000012180B294
:105A900002F097F894F913300133D1D1FFF7CEFE1D
:105AA000CEE700BF04920B0020A1070008B5F32148
:105AB000FFF7A8FF00F0010008BD000030B590F925
:105AC0001030013385B004460D461FD101790068BE
:105AD00001F044FB2068036829469B6898472068CA
:105AE00001F047FB21792068022201F034FB206895
:105AF00003685B6998470546206803685B699847B7
:105B000040EA052085B2284605B030BD90F9133033
:105B100001330CD1184B009300238DF80430174B40
:105B2000029368460123ADF80C30FFF78EFE94F91E
:105B30001000002180B202F044F845F080012046B8
:105B4000FFF78DFE00212046FFF789FE0021054664
:105B50002046FFF784FE40EA052085B294F9100044
:105B6000012180B202F02DF894F913300133CAD12B
:105B7000FFF764FEC7E700BF04920B0020A10700F7
:105B800008B5FFF79BFF40BA80B208BD38B5882141
:105B90000446FFF7F5FF8A21A0822046FFF7F0FFB9
:105BA0008C21E0822046FFF7EBFF8E2120832046E8
:105BB000FFF7E6FF902160832046FFF7E1FF922187
:105BC000A0832046FFF7DCFF9421E0832046FFF707
:105BD000D7FF962120842046FFF7D2FF98216084CA
:105BE0002046FFF7CDFF9A21A0842046FFF7C8FF8B
:105BF0009C21E0842046FFF7C3FF9E21208520469C
:105C0000FFF7BEFFA12160852046FFF7FBFEE121E3
:105C100084F82C002046FFF7B3FFE321E0852046FF
:105C2000FFF7F0FEE42184F830002046FFF7EAFE9B
:105C3000E52105462046FFF7E5FE00F00F0343EAA5
:105C400005106086E6212046FFF7DCFEE5210546CB
:105C50002046FFF7D7FEC0F3071343EA0510A086DE
:105C6000E7212046FFF7CEFE84F8360038BD00005D
:105C700030B590F91030013385B004460D4623D17C
:105C80000179006801F06AFA2068036829469B6878
:105C90009847206801F06DFA21792068032201F00D
:105CA0005AFA206803685B69984705022068036810
:105CB0005B69984728430502206803685B69984739
:105CC0000543284605B030BD90F9133001330CD19F
:105CD0001A4B009300238DF80430194B0293684649
:105CE0000123ADF80C30FFF7B0FD94F9100000214E
:105CF00080B201F066FF45F080012046FFF7AFFD5E
:105D000000212046FFF7ABFD002105022046FFF7EA
:105D1000A6FD2843050200212046FFF7A0FD05430C
:105D200094F91000012180B201F04BFF94F9133077
:105D30000133C6D1FFF782FDC3E700BF04920B0019
:105D400020A1070010B5FA210446FFF791FFB0F536
:105D5000000F1FD0A18A9FED117A4B00C1EB2022CA
:105D6000C3EBE011B4F91630594302FB02F3B4F966
:105D700018201B1353439B1303EBE123E36003EB56
:105D8000830380331B1207EE903AF8EEE77A87EE32
:105D9000870A10BD9FED020AFBE700BF0000C84262
:105DA0000000C07F38B50446FFF7CCFFFD21204638
:105DB000FFF784FEB0F5004F38D0E168B4F9342025
:105DC000A1F59635B4F932100905C1EB803305FB16
:105DD000123303F58043DA1394F8303094F9361017
:105DE0006B43DB126943891203F500434B439B125B
:105DF000B4F92E1003F500134B4303F500539B1326
:105E00005343DA1394F82C105243D2114A43A3EBB4
:105E1000221323EAE373B3F1C85FA8BF4FF0C8535E
:105E20001B1300EE103ABAEECB0A38BD9FED010A03
:105E3000FBE700BF0000C07F2DE9F8430546FFF7F0
:105E400081FFF7212846FFF713FFB0F5000F00F0A0
:105E5000B680E968B5F91C304FEAE17EB1F5FA3158
:105E60004EF1FF3EDC1703FB0EF201FB0422A3FB05
:105E7000013422441203A1FB01781C0301FB0EF63E
:105E800042EA1352B5F91E3008EB46084FEAE37CAC
:105E900003FB08F607FB0C66A3FB073C66441B0AE2
:105EA00043EA06631B1942EB26226E8B02F5004281
:105EB000A3FB063406FB0244E317621053EA6404B2
:105EC0004FF0000C7ED0B5F9244004FB08F64FEAF1
:105ED000E47907FB0966A4FB07473E44B5F9227045
:105EE0004FEAE77807FB0EFE01FB08EEA7FB017106
:105EF0007144490441EAD73100117F043F19C0F5CC
:105F0000801446EB010604F00040B5F920101CEBAC
:105F1000070740EA5400E407E41B06EBC10640F61D
:105F2000354160EB0606A4FB010401FB0641FEF7C8
:105F300041FEB5F92A20B5F928604FEA613C430BD0
:105F400043EAC14302FB0CF7D41703FB0477A2FB1F
:105F500003243C4402FB0CF703FB0477A2FB03235E
:105F60001F44530E43EAC7131B184FEAE67206FBA1
:105F700001F4864641EB676702FB0041A6FB0E0673
:105F8000B5F926403144C00C40EA413018184FEAB8
:105F9000E47547EBE141000A2D0140EA016045EA62
:105FA00014752401201845EB2121FEF7C5FD9FED56
:105FB000070A07EE900A27EE800ABDE8F8839FEDF6
:105FC000040AFAE79FED030AF7E700BF0000803BF1
:105FD0000000C07F0000000030B5044690F91000BA
:105FE000421C85B019D1206801F086F8D0212046E6
:105FF000FFF708FD6028A06045D12046B622E021C9
:10600000FFF764FC4FF4967000F00CFD2046FFF79C
:106010004DFD054628B36420F6E7012180B201F06A
:10602000D0FD94F91000012180B201F0B9FD94F97E
:106030001300431C04D1FFF7E5FB01F079FAD5E723
:10604000012180B201F0ACFD94F91100012180B270
:1060500001F0A6FD94F91200002180B201F0A0FD2C
:10606000C4E72046FFF792FD052300931A4603215B
:106070002046CDE90155FFF77BFC642000F0D2FCFF
:10608000012005B030BD0020FBE7772310B5037178
:10609000044601F0F3FD20602046FFF79DFF30B974
:1060A000762323712046BDE81040FFF795BF10BD51
:1060B0000368C9B29B68184710B5044601F0DEFDBD
:1060C0003C2101F04FF801F0D9FD8021FFF7F0FFEE
:1060D00001F0D4FD036821469B68984701F0CEFD8E
:1060E000BDE8104001F045B808B5AE20FFF7E4FF69
:1060F000052000F097FCAF20FFF7DEFF052000F041
:1061000091FCBDE80840A620FFF7D6BF08B50123E3
:1061100003702020FFF7D0FFBDE808400220FFF702
:10612000CBBF10B550391446C8B2FFF7C5FFE00029
:1061300000F00800FFF7C0FFC4F343001030BDE8D3
:106140001040FFF7B9BF10B50C4601F097FD3C2198
:1061500001F008F801F092FD4021FFF7A9FF01F0DE
:106160008DFD036821469B68984701F087FDBDE8D7
:10617000104000F0FEBF0000A1F120035F2B88BF9C
:10618000202170B501F10051074D2039064605EB7D
:10619000C105082415F8011B3046013CFFF7D3FF69
:1061A00014F0FF04F6D170BD10920B0070B50546D7
:1061B000AE20FFF781FF00260022F1B22846FFF74C
:1061C000B0FF102420212846013CFFF7D5FF14F032
:1061D000FF04F7D10136082EEED1AF20FFF76CFF98
:1061E000224621462846BDE87040FFF79ABF70B5A9
:1061F00006460D460024E3B20134E95C19B130468D
:10620000FFF7BAFFF7E770BDF0B585B000230C1EAD
:10621000CDE901330646ADF80C3024DA2D21FFF725
:10622000ABFF6442012300250A202A4604A90A4440
:106230000135B4FBF0F100FB114402F80C4CEDB257
:106240000C460029F1D12B44DCB204AB5F190D3FA1
:1062500075B117F801193031C9B23046013DFFF769
:106260008BFFEDB2F4E7DED13021FFF785FF01248B
:10627000204605B0F0BDA620FFF71EBF10B5054BA8
:106280000360037C04461BB9406808B100F08AFB38
:10629000204610BD28950B0010B50446FFF7EEFF11
:1062A00020461421FEF787FE204610BD10B5034B93
:1062B00003600446FFF7E2FF204610BD38950B004F
:1062C00010B50446FFF7F2FF20463021FEF773FEBB
:1062D000204610BD00230122C3604361028380F881
:1062E0002A307047C0E9011208B50022C2600122BD
:1062F0000274044A02604FF0FF32C262FFF7EAFF05
:1063000008BD00BF38950B00D0E9022310B59342B9
:106310003FBF42685C1CC460D15424BF012380F895
:106320002A3010BD10B54369044643B100EB430366
:10633000597E09B1FFF7E8FF6369013B6361D4E966
:106340000210636888424FF000022ABF5B181A549B
:1063500003F8012C10BD70B50446D0E90250666800
:106360002D1A134630440A46294600F02BFB85427D
:106370002DBFE368A368E360C01836BF0123E06067
:1063800084F82A3070BD0EB403B503AA52F8041B7A
:106390000192FFF7E0FF02B05DF804EB03B0704735
:1063A0002DE9F84304460E46174612B12221FFF7A5
:1063B000ABFFDFF80C810025715D06EB05090029B4
:1063C00074D0D4E902329A4270D20B0634D501F06F
:1063D000F003E02B05F101091DD116F8092002F0A8
:1063E000C003802B39D105F1020916F8093003F0FA
:1063F000C000802831D103F03F03920143EA01330A
:1064000002F47C621A4392B241462046FFF7BBFF7A
:106410004D460135D0E701F0E003C02B1DD116F841
:10642000093003F0C002802A17D1890101F4F86213
:1064300003F03F031A43E7E70D290AD807290CD9CF
:10644000A1F10803052B08D8DFE803F0092317079B
:10645000111D222923D05C2921D0204604E05C2193
:106460002046FFF751FF6221FFF74EFFD1E75C2185
:106470002046FFF749FF6621F6E75C212046FFF73B
:1064800043FF6E21F0E75C212046FFF73DFF7221BC
:10649000EAE75C212046FFF737FF7421E4E75C213F
:1064A0002046FFF731FF99F80010DDE72FB12046B5
:1064B0002221BDE8F843FFF727BFBDE8F88300BFFE
:1064C00010950B00426900EB42031A7E12B10022C4
:1064D0001A7670472C21FFF717BF73B543690191F6
:1064E0000133082B16460FD8FFF7ECFF43690199DB
:1064F00000EB43045A1C01254261A576E676FFF7BE
:1065000003FF284602B070BD0020FBE737B5044604
:1065100010EE100AFDF7E8FEE56A002D02460B4674
:1065200008DBCDE9002307492A462046FFF72BFF69
:1065300003B030BD0449204603B0BDE83040FFF74A
:1065400022BF00BF17950B001C950B0008B5024B2E
:106550001B685B6C019308BD4802030008B5024B41
:106560001B685B68019308BD1802030008B5024B65
:106570001B685B69019308BD1802030008B5024B54
:106580001B685B68019308BD2C02030008B5024B31
:106590001B689B68019308BD2C02030008B5024BE1
:1065A0001B68DB68019308BD2C02030008B5024B91
:1065B0001B681B69019308BD2C02030008B5024B40
:1065C0001B685B69019308BD2C02030008B5024BF0
:1065D0001B681B6B019308BD2C02030008B5024B1E
:1065E0001B68DB6C019308BD2C02030008B5024B4D
:1065F0001B68DB68019308BD2802030008B5024B45
:106600001B689B69019308BD2802030008B5024B73
:106610001B68DB69019308BD2802030008B5024B23
:106620001B681B6A019308BD2802030008B5024BD2
:106630001B685B6A019308BD2802030008B5024B82
:106640001B689B6A019308BD2802030008B5024B32
:106650001B68DB6A019308BD2802030008B5024BE2
:106660001B681B6B019308BD2802030008B5024B91
:106670001B685B6B019308BD2802030008B5024B41
:106680001B681B6C019308BD2802030008B5024B70
:106690001B681B6D019308BD2802030008B5024B5F
:1066A0001B685B69019308BD6402030008B5024BD7
:1066B0001B689B68019308BD6802030008B5024B84
:1066C0001B68DB68019308BD6802030008B5024B34
:1066D0001B681B68019308BD3002030008B5024B1C
:1066E0001B685B69019308BD3002030008B5024BCB
:1066F0001B68DB69019308BD3002030008B5024B3B
:106700001B681B6A019308BD3002030008B5024BE9
:106710001B685B6A019308BD3002030008B5024B99
:106720001B68DB6B019308BD3002030008B5024B08
:106730001B681B6C019308BD3002030008B5024BB7
:106740001B685B6C019308BD3002030008B5024B67
:106750001B68DB68019308BD3C02030008B5024BCF
:106760001B681B69019308BD3C02030008B5024B7E
:106770001B685B69019308BD3C02030008B5024B2E
:106780001B689B69019308BD3C02030008B5024BDE
:106790001B68DB69019308BD3C02030008B5024B8E
:1067A0001B681B6A019308BD3C02030008B5024B3D
:1067B0001B689B6A019308BD3C02030008B5024BAD
:1067C0001B681B6C019308BD3C02030008B5024B1B
:1067D0001B681B68019308BD4C02030008B5024BFF
:1067E0001B685B68019308BD4C02030008B5024BAF
:1067F0001B681B69019308BD4C02030008B5024BDE
:106800001B685B69019308BD4C02030008B5024B8D
:106810001B689B69019308BD4C02030008B5024B3D
:106820001B68DB69019308BD4C02030008B5024BED
:106830001B681B6A019308BD4C02030008B5024B9C
:106840001B685B68019308BD2002030008B5024B7A
:106850001B685B69019308BD2002030008B5024B69
:106860001B68DB6C019308BD2002030008B5024BD6
:106870001B685B6D019308BD2002030008B5034B44
:106880001B68D3F88830019308BD00002002030084
:1068900008B5034B1B68D3F89430019308BD000082
:1068A0002002030008B5024B1B685B69019308BD19
:1068B0004402030008B5024B1B681B6A019308BD24
:1068C0004402030008B5024B1B68DB6B019308BD53
:1068D0004402030008B5024B1B685B68019308BDC6
:1068E0004002030008B5024B1B689B68019308BD7A
:1068F0004002030008B5024B1B68DB68019308BD2A
:106900004002030008B5024B1B681B69019308BDD8
:106910004002030008B5024B1B685B69019308BD88
:106920004002030008B5024B1B689B69019308BD38
:106930004002030008B5024B1B68DB69019308BDE8
:106940004002030008B5024B1B681B6A019308BD97
:106950004002030008B5024B1B681B6B019308BD86
:106960004002030008B5024B1B685B6B019308BD36
:106970004002030008B5024B1B681B6C019308BD65
:106980004002030008B5024B1B685B6C019308BD15
:106990004002030008B5024B1B681B68019308BD49
:1069A0001C02030008B5024B1B685B68019308BD1D
:1069B0001C02030008B5024B1B689B68019308BDCD
:1069C0001C02030008B5024B1B685B6A019308BDFB
:1069D0001C02030008B5024B1B68DB6A019308BD6B
:1069E0001C02030008B5024B1B681B6B019308BD1A
:1069F0001C02030008B5024B1B68DB6B019308BD4A
:106A00001C02030008B5024B1B681B6C019308BDF8
:106A10001C02030008B5024B1B685B6C019308BDA8
:106A20001C0203000021FFF711BF10B58368044664
:106A30000BB901F089F9C3689847A3681BB1032219
:106A400021462046984720461021BDE81040FEF719
:106A5000B2BA10B58368044613B1032201469847C1
:106A6000204610BD10B54368013B0446436063B93E
:106A700003689B689847A368013BA3602BB9236810
:106A80002046DB68BDE81040184710BD10B504462D
:106A9000006808B1FFF7E6FF204610BD13B50B46AE
:106AA0000246D0E900016C4684E8030093E8030045
:106AB00082E8030094E8030083E8030002B010BDFD
:106AC000024800230360FFF741BD00BFC4E6032076
:106AD00070470020704710B510210446FEF76BFA8E
:106AE000204610BD08B5FFF7F6FF08BD30B50022FF
:106AF0004FF69C74026084808D888C800C68858041
:106B000004600A6030BD10B504460068FFF74AFF14
:106B1000204610BD38B5C468F4B12378022B03D1E8
:106B200004F10C00FFF7EFFF656835B12846FFF769
:106B300090FF10212846FEF73EFAA56835B1284699
:106B4000FFF787FF10212846FEF735FA204614216B
:106B5000BDE83840FEF72FBA38BD0B6803604B68BC
:106B6000436013B15A6801325A60704737B5044622
:106B700068460D46FFF7F1FF009B019A23606260B3
:106B8000002301A801930093FFF780FF35B1281D72
:106B9000FFF77CFF08212846FEF70DFA204603B0D8
:106BA00030BD826810B50AB901F0CEF8BDE81040DA
:106BB000C368184708B5006800F11001FFF7F1FF3E
:106BC00008BD826810B50AB901F0BEF8BDE81040F2
:106BD000C368184708B5006800F11001FFF7F1FF1E
:106BE00008BD000038B500230446036010200D46A0
:106BF000FEF7DDF928B10123C0E90133024B036040
:106C0000C5602060204638BD48950B0038B500238C
:106C100083608B6804460D462BB102229847EB68CF
:106C2000E360AB68A360204638BD0000F0B589B0D2
:106C300004686846FFF75AFF4FF00203D4E84F2F6D
:106C4000002A03D1C4E8413F0029F7D125D104F13E
:106C50000C0569462846FFF749FFBFF35B8F012308
:106C60006370002004F10803BFF35B8F53E8006FEB
:106C700043E80002002AF9D1BFF35B8F6EB1FFF742
:106C8000EDFD78B129463046FFF78BFF3046FFF720
:106C9000E0FE10213046FEF78EF96846FFF733FF1D
:106CA00009B0F0BD314602A8FFF7B0FFE068B4F9C3
:106CB000105008B102F01CF906901020ADF81C50DD
:106CC000FEF775F90546E8B1002787601820FEF742
:106CD0006EF9044688B10146876002A8FFF7DEFE20
:106CE000049BA268A360059B049206A9E268E36086
:106CF00004F110000592FFF7F9FE084BEB60084B1A
:106D00002C60AB6006A8FFF7FEFE02A8FFF7A1FE0D
:106D1000002229460348FFF7A9FDB7E7B56B0B0032
:106D2000396E0B002B6A0B002DE9F04F8BB0054636
:106D30009DF850A00F4690469946FFF7B3FD07AE69
:106D4000834638BB4FF62E73059005A93046ADF843
:106D50001830FFF7CBFE1420FEF729F9044648B19E
:106D6000022303700123C0E901BB437031460C309C
:106D7000FFF7BCFE2846214640F8044BFFF732FFE0
:106D80003046FFF7C0FE05A8FFF7BDFE28460BB052
:106D9000BDE8F08F0C2300241420CDE908440793AC
:106DA000FEF705F9014618B1C0E9014404704470CA
:106DB00004A80391FFF716FF1E4B08930820FEF767
:106DC000F6F8044610B103A9FFF7C7FE00965FFA74
:106DD0008AF34A46414638460994FFF76BFDB8B935
:106DE000039B5B7803F0FF0293B94FF69C7305A9F0
:106DF00003A80592ADF81830FFF718FF05A8FFF7B4
:106E000082FE05A80999FFF7B1FE06A8FFF73EFE2E
:106E100003A905A8FFF7A1FE059B069A2B606A60EF
:106E2000002306A806930593FFF730FE04A8FFF79A
:106E30002DFEABE7B56E0B00012AF8B5054603D170
:106E40000B6803600020F8BD022A10D0032AF9D194
:106E50000468002CF6D004F11000FFF754FE204621
:106E6000FFF7F7FD18212046FEF7A5F8EAE71820FE
:106E70000E68FEF79CF8044650B13146FFF7C6FE97
:106E80003069B6F9147008B102F032F82061A782B7
:106E90002C60D7E738B5002383608B6804460D4625
:106EA0002BB102229847EB68E360AB68A3602046F1
:106EB00038BD0000F0B589B004460D4601A8114662
:106EC000FFF754FEA4B124B21DB1284602F010F819
:106ED000054601A803A90395ADF81040FFF7A6FEEB
:106EE00003A8FFF710FE02A8FFF7D0FD09B0F0BD20
:106EF000019D0123D5E84F2F002A03D1C5E8413F6A
:106F00000029F7D1EFD12B73BFF35B8F6B702B1D73
:106F1000BFF35B8F53E8006F43E80042002AF9D1CA
:106F2000BFF35B8F002EDED02046FFF797FC0746AD
:106F300060B105F10C013046FFF743FE3046FFF724
:106F400088FD10213046FEF736F8CCE7314603A81D
:106F5000FFF7A0FF2B7B8DF81C301020FEF727F8E1
:106F60000546D0B187601420FEF721F8044678B1B9
:106F70008760014603A8FFF791FD059BA268A36007
:106F8000069B0592E268E3609DF81C30069223742C
:106F9000064BEB60064B2C60AB6003A8FFF759FD76
:106FA000002229460348FFF761FCC7E7D56B0B00B9
:106FB000B96F0B002B6A0B00012A70B5044603D190
:106FC0000B680360002070BD022A0CD0032AF9D19F
:106FD0000468002CF6D02046FFF73BFD1421204624
:106FE000FDF7E9FFEEE714200E68FDF7E0FF054628
:106FF00020B13146FFF74EFF337C2B742560E1E76B
:10700000002240681146FFF79DBC002240681146EF
:10701000FFF7A8BC40680022FFF79CBC4068002234
:1070200081F00101FFF786BC002340681A4619462B
:10703000FFF778BC002340681A461946FFF76ABC80
:10704000002240681146FFF75DBC002240681146EF
:10705000FFF748BC406800220221FFF74BBC002329
:1070600040681A46FFF736BC024B03225A60024AB8
:107070001A607047C8E6032064950B007047F8B5A6
:10708000064615460C468F18BC4206D0336814F8E5
:10709000011B9B6830469847F6E72846F8BD007C00
:1070A0000022FFF7BBBA007C0021FFF7BFBA007CCB
:1070B0000021FFF7C3BA007C0021FFF7C7BA007CAC
:1070C0000021FFF7CBBA10B514210446FDF773FF7A
:1070D000204610BD10B54FF47A73044608460021CF
:1070E000C4E90113034B236020741146FFF7C6FA6D
:1070F000204610BDA0950B000023007C1A461946BF
:10710000FFF774BA7FB500221423CDE90122ADF850
:1071100004300B788DF808304B680393CB680493E8
:10712000007C0B7A059301A9FFF7B0FA07B05DF870
:1071300004FB1FB5003B8DF800104FF06401039174
:1071400018BF0123694601928DF80830FFF7DAFF76
:1071500005B05DF804FB0123FFF7EBBF007C0022C4
:10716000FFF74CBAC9B2FFF7F9BF007C0022FFF766
:107170004DBA0121FFF7F9BF704710B51821044639
:10718000FDF719FF204610BDF0B5037D062B8DB02D
:107190000E4600F104074FF0000412D000F108057C
:1071A00015F8011D0A22304600F05DF9AF42044493
:1071B00019D0002CF4D02E21304600F03BF90444C5
:1071C000EEE72F236A4639460A208DF80040FFF784
:1071D00065FA6846FDF7A8FE33680246DB68694633
:1071E00030469847044620460DB0F0BD10B5054B1B
:1071F0000446112240F8043B002101F043FE2046E2
:1072000010BD00BFC8950B000346074A10B543F8F0
:10721000042B01F1100251F8044B43F8044B914246
:10722000F9D10A781A7010BDC8950B0010B59DF8F9
:10723000084044EA032343EA024242EA016104238C
:107240004160037510BD000007B5064B0360CB78A5
:1072500000938B784A780978FFF7E8FF03B05DF870
:1072600004FB00BFC8950B00014B024A1A6070472F
:10727000D0E60320D4950B00002340681A46FFF7A0
:1072800029BB406800220221FFF734BB002240687E
:107290001146FFF727BB002240681146FFF732BBBB
:1072A000002340681A461946FFF734BB00234068A4
:1072B0001A461946FFF736BB40680021FFF75ABB54
:1072C00040680021FFF75EBB4068002281F00101A9
:1072D000FFF730BB40680022FFF73CBB002240684C
:1072E0001146FFF73FBB002240681146FFF72ABB5B
:1072F0002DE9F04395B014460D460746FFF776FF9B
:1073000000211C220DA8009101F0BCFD40230C932C
:1073100020466B460CAA0021FFF7D0F9044600284E
:107320004BD1024601216868FFF7ECFA0221804642
:1073300022466868FFF7E6FA009E81462146002E45
:107340003BD0002939D17368022B03D00A2B11D00E
:10735000F669F4E7B8F1000FFAD0716906A80431B4
:1073600007ADFFF771FF0FCD3C1D0FC42B682370D5
:107370004146EDE7B9F1000FEAD07469102201A887
:1073800001F080FD06238DF8143001AD04F10803EF
:107390001834186859682A4603C20833A3421546B0
:1073A000F7D101A906A807ADFFF72EFF0FCD3C1DB1
:1073B0000FC42B6823704946CAE70098FFF776F997
:1073C000384615B0BDE8F083024B034A1A6000222C
:1073D0005A607047D4E60320E0950B00F8B50646E6
:1073E0000D468F180024BD420CD0336815F8011BE0
:1073F0009B6830469847031E01DB1C44F3E7002CD2
:1074000008BF1C462046F8BD13B50446084659B1CE
:107410000191FDF789FD23680199DB68024620464A
:1074200002B0BDE81040184702B010BD08B5FFF724
:10743000EBFF08BD03689B68184738B50D2105466A
:10744000FFF7F8FF0A2104462846FFF7F3FF204420
:1074500038BD38B50546FFF7D7FF04462846FFF785
:10746000ECFF204438BD30B58BB00023012A8DF8E5
:10747000243098BF0A2209AC0D46B1FBF2F101FBA2
:10748000125303F0FF03092B94BF30333733DBB2C1
:10749000AA4204F8013DEFD92146FFF7B5FF0BB032
:1074A00030BD2DE9F04186B000AF05460E46381DCF
:1074B000142114463B60FFF785FA13280ED8391DB6
:1074C0002846FFF7A1FF04461EB12846FFF7B5FF87
:1074D000044420461837BD46BDE8F08100F108039A
:1074E00023F00703E846ADEB030D2246411C3B6841
:1074F0006846FFF767FA69462846FFF785FF0446A6
:10750000C546E1E7014B00229A607047DCE60320A4
:107510000021FFF713B90021FFF708B910B50446A1
:1075200008462170FFF7E2F800236360204610BD93
:1075300013B504460078FFF7EEFF58B920780190A4
:107540004FF6FF71FFF7C2F8019802B0BDE8104096
:10755000FFF7DEBF02B010BD0078FFF7D9BF000013
:10756000400830B51860002418688842E5B206D992
:107570000134082C02D040081860F5E70725024BBB
:107580005B5D137030BD00BF14960B002DE9F04316
:1075900006468FB000780C46FFF7BDFF00281BDBC6
:1075A00035781422002109A801F06CFC0B2300227D
:1075B00009A92846ADF82430FFF7A8F89DF82D302A
:1075C00013B19DF82C5055B10027B946B846012596
:1075D00023795DB1C3B100200FB0BDE8F083DDF8C1
:1075E00030809DF834909DF83570F1E7002B35D14F
:1075F000A368434508D18DF820908DF82170BDF81F
:107600002020A3899A42E6D00023A1688DF80F308C
:107610000A9804AB0DF10F02FFF7A2FF217985B99B
:1076200089B9A36843450ED38DF820908DF8217059
:10763000BDF82020A3899A4205D1049B434502D17D
:10764000C9E70029F9D100230193637B00939DF8DA
:107650000F20237B3078FFF761F8BCE7CDE90055B8
:107660002B462A460121F5E708B50078FFF736F8E2
:10767000C0B208BD10B504460068FFF793F9204674
:1076800010BD10B50446006808B1FFF78BF9002360
:10769000C4E90133236010BD38B504460D460068C7
:1076A0000131FFF787F910B1C4E90005012038BDA9
:1076B00010B50368044623B143688B4201D301200F
:1076C00010BD2046FFF7E8FF0028F9D0A368002B83
:1076D000F5D122681370F2E737B50D4611460192D5
:1076E0000446FFF7E5FF019A28B92046FFF7C9FFD6
:1076F000204603B030BDA2602946206801F0B4FBEB
:107700002268A3680021D154F2E7002313B5C0E931
:10771000003304468360037341B108460191FDF7CD
:1077200003FC019902462046FFF7D6FF204602B02F
:1077300010BD884210B5044605D00B682BB18A688D
:107740001946FFF7C9FF204610BDFFF79AFFFAE779
:1077500010B500230446C0E9003383600373FFF7CC
:10776000E8FF204610BD13B5044659B10846019103
:10777000FDF7DAFB019902462046FFF7ADFF2046F0
:1077800002B010BDFFF77DFFF9E70000054B0222B4
:107790001A60054B054A9A600020C3E90000FFF714
:1077A0004DB800BFF8E60320ECE603200000FFFF21
:1077B000024B1A68024B1A60704700BFC8E50320ED
:1077C000FCE6032070474174704708B5007CFEF763
:1077D000EDFF20EAE07008BD08B5007CFEF7BEFFB3
:1077E00020EAE07008BD08B5007CFEF7C7FF40EA5C
:1077F000E07008BD08B5007CFEF7B8FF40EAE07015
:1078000008BD007CFEF7C2BF37B5457C04462DB1EC
:10781000207C03B0BDE83040FEF798BF007C0191AA
:10782000FEF7C4FF00280199F2DC284603B030BD02
:1078300010B514210446FDF7BEFB204610BD000024
:1078400010B54FF47A730446084611460022C4E985
:107850000123044B2360012320746374FEF7AEFF01
:10786000204610BD40960B0041747047704770472A
:1078700008B50021007CFEF7C9FF40EAE07008BDB2
:1078800008B50121007CFEF7C1FF40EAE07008BDA9
:1078900008B5007CFEF7B2FF20EAE07008BD08B52D
:1078A000007CFEF7A3FF20EAE07008BD13B5044694
:1078B000007C0191FEF7A2FF0028019901DC607CA9
:1078C00020B1207CFEF7AAFF20EAE07002B010BDD4
:1078D000007CFEF7ABBF10B514210446FDF76BFB2F
:1078E000204610BD10B54FF47A73044608460021B7
:1078F000C4E90113044B236001232074637411460F
:10790000FEF764FF204610BD70960B00007C00223D
:10791000FEF764BF10B514220446002101F0B2FA4C
:10792000204610BD10B50F4C88B003A8FFF7F2FF3A
:107930002178BFF35B8F11F001010FD12046019137
:10794000FDF73BFB019948B103AA0748FFF7CAFFBF
:107950002046FDF737FB054801F080FA024808B0E1
:1079600010BD00BF00E7032004E703206D780B0083
:10797000002240681146FEF7C5BF0022406811464C
:10798000FEF7E0BF002240681146FEF7EBBF4068FB
:107990000022FEF7DFBF4068002281F00101FEF700
:1079A000C9BF002340681A461946FEF7BBBF002333
:1079B00040681A461946FEF7ADBF002240681146DE
:1079C000FEF790BF406800220221FEF793BF00231C
:1079D00040681A46FEF77EBF024B04225A60024AF4
:1079E0001A60704718E70320A0960B00014B18603F
:1079F000704700BFD0E5032008B50B4B43B1FFF73C
:107A000091FF03681B699847002801DDAFF30080F0
:107A1000064B43B100F072F903681B6998470028D0
:107A200001DDAFF3008008BD000000000000000091
:107A300008B5FFF7E1FFFEF799FD014B186008BD9F
:107A400028E703200548064A064908B5121A01F03E
:107A50000BFA054B054A1A6008BD00BF00F403206D
:107A600004F4032024980B0000F403201E1C279A22
:107A700007B5002300931A466FF07701FEF708FF61
:107A800003B05DF804FB000007B543880A2B08D05B
:107A9000502B0BD1094B1B684BB103B05DF804EBC5
:107AA0001847FFF7E5FF03B05DF804FB00230093E0
:107AB0001A466FF07701FEF7EBFEF4E724E70320A8
:107AC00010B512480021FEF7A5FF114B1A68114BA3
:107AD0009A42114B0CBF012200221A7001D0FFF70D
:107AE000B1FFFEF73BFD044601F0D4F90B4B13B197
:107AF0002046AFF3008000210848FEF7E3FEBDE812
:107B0000104007480021FEF7B9BE00BFED790B0019
:107B100000F403201E1C279A20E703200000000029
:107B2000897A0B00232813B502D9002002B010BDBA
:107B3000A0F10B03022B1AD8174C2178BFF35B8FEF
:107B400011F001010BD120460191FDF736FA0199A0
:107B500028B11248FFF7E2FC2046FDF733FA0F4B3D
:107B60001878FEF7CBFD0028DFD10120DEE70128E1
:107B700009D800F083F80021007CFEF777FD80F043
:107B80000100C0B2D2E709380128EED800F0B6F8FB
:107B9000007CFEF703FEF2E7B4E60320B8E603201C
:107BA000232838B504460D460AD8FF2908D0FFF728
:107BB000B9FF28B129462046BDE83840FEF7E6BCAB
:107BC00038BD38B504460D46FEF7E8FCFF2810D056
:107BD000062804D84D2323FA00F0C30709D4204611
:107BE000FFF7A0FF28B129462046BDE83840FEF740
:107BF000DDBC38BD10B50446FEF7D0FC031FDBB278
:107C0000012B08D92046FFF78DFF20B12046BDE8A3
:107C10001040FEF7D3BC002010BD0D2810B504465F
:107C20009CBF0E34A4B22046FFF77CFF50B1032165
:107C30002046FEF7A3FC032804D12046BDE81040EF
:107C4000FEF7C4BC002010BDFEF7C8BC70470000A2
:107C500038B5202514230446036085600561064974
:107C6000284600F06FF804496060284600F06AF882
:107C7000E060204638BD00BFD4960B0030B50E4DF5
:107C80002978BFF35B8F11F0010487B011D128462A
:107C9000FDF793F968B101A8FFF7DAFF01AA2146C1
:107CA0000648FFF717FA2846FDF78CF9044801F05B
:107CB000D5F8024807B030BD2CE7032030E7032099
:107CC0004D7C0B007047000038B5044614252A4649
:107CD000002101F0D7F82580402507492581284655
:107CE000258200F02FF804496060284600F02AF849
:107CF000E060204638BD00BFD4960B0030B50E4D75
:107D00002978BFF35B8F11F0010487B011D12846A9
:107D1000FDF753F968B101A8FFF7D6FF01AA214684
:107D20000648FFF78DFD2846FDF74CF9044801F0A1
:107D300095F8024807B030BD44E7032048E7032028
:107D4000C57C0B00FDF735B908B5FEF743FE000012
:107D5000F8B52DED028B57EC106B55EC114B00F084
:107D6000CBF8634BB0EE408AF0EE608A93F90030B6
:107D700001332AD022462B4620462946FCF7A6FD91
:107D800018BB32463B4630463946FCF79FFD00287B
:107D900044D10022002330463946FCF765FDD8B1B6
:107DA0000022002320462946FCF75EFD00283DD135
:107DB00045EC104B00F010FF38B120462946002258
:107DC0000023FCF75BFD00285CD1B0EE480AF0EE22
:107DD000680ABDEC028BF8BDB0EE480AF0EE680A06
:107DE00000F0FAFE58B351EC180B00220023FCF708
:107DF0003BFD0028E9D047EC106B00F0EDFE0028B9
:107E0000E3D045EC104B00F0E7FE0028DDD0FEF794
:107E1000F1FD22239FED2E8B0360D6E720462946F5
:107E200000220023FCF720FD0028CED09FED2A8BF6
:107E3000B0EE480AF0EE680ABDEC028BF8BD47ECE4
:107E4000106B00F0C9FE0028CDD045EC104B00F0BF
:107E5000C3FE0028C7D053EC182B18EE100A1946A1
:107E6000FCF734FD20BBFEF7C5FD034622221A6055
:107E70003046394600220023FCF700FD48B99FED4B
:107E8000188BA2E7FEF7B6FD21239FED178B036049
:107E90009BE745EC104B00F0B3FE224651EC100B73
:107EA0002B46FCF7E1FC0028E9D19FED0F8B8CE716
:107EB000FEF7A0FD00220023212101601046194693
:107EC000FCF794FB41EC180B7FE700BFAFF3008099
:107ED0000000000000000000000000000000F03F73
:107EE000000000000000F07F000000000000F0FF34
:107EF000CCE50320000000002DE9F04F57EC116B9A
:107F00002DED0C8B27F0004A5AEA060287B03DD0CF
:107F100055EC104B724925F00048884510EE102AA8
:107F2000A9462CDC11EE103ABB4636D08A4526DC39
:107F30006B498A4521D0B9F1000F39DB002100914E
:107F4000002B51D1664B9A4500F0A280654B9A45B3
:107F500000F0B080BBF1804F00F0C084624B9B45C5
:107F600042D1B9F1000F3FDB45EC104B07B0BDEC3F
:107F70000C8BBDE8F04F00F059BD002BDBD008F1B1
:107F8000404808F5801858EA020309D19FED500BCC
:107F900007B0BDEC0C8BBDE8F08F0CB9C245C7DD56
:107FA000524807B0BDEC0C8BBDE8F04F00F020BE8E
:107FB0004F498A4500F38580A1F154718A450FDD50
:107FC0004FEA2A51A1F2FF31142940F39B84C1F1F9
:107FD000340123FA01F000FA01F1994200F0ED8436
:107FE00000210091002BB1D045EC104B029200F023
:107FF000E9FD029A5ABBB8F1000F04D0394B29F0C1
:1080000040429A4223D1BBF1000F07DA53EC102B08
:1080100034490020FCF7EAFA41EC100BB9F1000FEB
:10802000B6DA009B08F1404808F5801858EA0303C7
:1080300040F08D8453EC102B10461946FBF7F4FFEB
:1080400002460B46FCF7D2FA41EC100BA0E7009A6F
:108050004FEAD973013B0493134335D0254B9A451E
:108060004CDD03F104739A45234B40F3DB839845C1
:1080700040F36083BBF1000F40F3608316A3D3E9A4
:10808000002310461946FCF787F941EC100B7FE7F7
:1080900008F1404303F5801313433FF477AF164BC9
:1080A000984540F37A83BBF1000FC0F2478347EC59
:1080B000106B6DE7BBF1000FC0F21A8445EC104B5A
:1080C00066E7022100913BE722462B46B4E700BF5A
:1080D000000000000000F03F9C7500883CE4377E03
:1080E0000000F07F0000F03F0000E03FD8960B005A
:1080F000FFFF3F430000E041FFFFEF3FE44B09EA91
:108100000303002253B951EC100BE24BFCF744F986
:1081100041EC100B10EE908A6FF034024FEA2853B6
:10812000A3F2FF339A18DC4B0592C8F3130848F00A
:108130007F54984544F4401407DDD84B984540F3EC
:10814000148401320592A4F580149FEDB96B9FED64
:10815000BA7B53EC162BB0EE47CAF0EE67CA002587
:10816000B0EE47DAF0EE67DA5BEC10ABA3465046B0
:10817000594643EC1A2BFBF757FF53EC1A2B80465A
:10818000894650465946FBF751FF02460B460020F0
:10819000C349FCF72BFA41EC1B0B404653EC1B2B5D
:1081A0004946FCF7F9F841EC180B0A460146CDE9BF
:1081B00002120021029164104BEC19AB44F0005400
:1081C000DDE902AB04F500230020591904460D46F1
:1081D00002460B4650465946FCF7DEF802460B466F
:1081E00040464946FBF720FF53EC1A2B8046894650
:1081F00020462946FBF718FF02460B4651EC190BA7
:10820000FBF712FF52465B46FCF7C6F802460B46E8
:1082100040464946FBF708FF53EC1B2BFCF7BCF824
:1082200053EC182B41EC190B51EC180BFCF7B4F87C
:1082300083A3D3E9002304460D46FCF7ADF882A3DF
:10824000D3E90023FBF7F2FE22462B46FCF7A4F805
:108250007FA3D3E90023FBF7E9FE22462B46FCF778
:108260009BF87DA3D3E90023FBF7E0FE22462B46D3
:10827000FCF792F87AA3D3E90023FBF7D7FE224656
:108280002B46FCF789F878A3D3E90023FBF7CEFE51
:108290002246804689462B4620462946FCF77CF834
:1082A00002460B4640464946FCF776F852460446DD
:1082B0000D465B4651EC180BFBF7B8FE53EC192B3F
:1082C000FCF76AF822462B46FBF7B0FE5246804682
:1082D00089465B4650465946FCF75EF802460B4617
:1082E00043EC1A2B6F4B0022FBF7A0FE42464B4695
:1082F000FBF79CFE00240D4622462B46504659466D
:10830000FCF74AF8674B82468B46002220462946F6
:10831000FBF78AFE53EC1A2BFBF786FE02460B4650
:1083200040464946FBF780FE53EC182BFCF734F827
:1083300022462B4604460D4651EC190BFCF72CF84F
:1083400002460B4620462946FBF770FE80468946CA
:1083500042464B4650465946FBF768FE44A3D3E9D4
:108360000023002004460D46FCF716F8524641EC67
:10837000190B5B4620462946FBF756FE02460B4684
:1083800040464946FBF750FE3BA3D3E90023FCF7E8
:1083900003F802460B462046294614461D4638A3DC
:1083A000D3E90023FBF7F8FF02460B462046294697
:1083B000FBF73CFE53EC1D2BFBF738FE804605987F
:1083C0008946FBF77FFF424682468B464B4651EC7F
:1083D000190BFBF72BFE53EC1C2BFBF727FE524629
:1083E0005B46FBF723FE52465B46002004460D46E3
:1083F000FBF71AFE53EC1C2BFBF716FE53EC192B64
:10840000FBF712FE02460B4640464946FBF70CFEC0
:10841000009B049A013B134382468B4640F0B68191
:108420009FED197BB0EE478AF0EE678A3CE000BF13
:10843000000000000000F03F00000000000000000D
:10844000EF4E454A287ECA3F65DBC9934A86CD3F39
:1084500001411DA96074D13F4D268F515555D53F1F
:10846000FFAB6FDBB66DDB3F033333333333E33FB7
:10847000000000E009C7EE3FFD033ADC09C7EE3F0C
:10848000F5015B14E02F3EBE000000000000F0BFCD
:108490000000F07F000040438E98030079B60B0087
:1084A0000000F03F000008400023CDE90067009382
:1084B000DDE90089304642464B463946FBF7B4FDBC
:1084C00022462B46FBF768FF32463B4606460F46E0
:1084D00050465946FBF760FF02460B463046394688
:1084E000FBF7A4FD42464B4606460F46204629466A
:1084F000FBF752FF04460D462B46304639462246CE
:10850000FBF794FDC24B9942804689468A4640F368
:10851000188101F13F4303F5E003034340F0078274
:10852000A3A3D3E9002330463946FBF77FFD02467B
:108530000B46404649469046994622462B46FBF755
:1085400073FD02460B4640464946FCF7B5F9002844
:1085500040F0ED81CAF30A534FF48012A3F2FE33C8
:1085600042FA03F35344AB49C3F30A52A2F2FF3277
:1085700041FA02FCC3F3130141F48011C2F1140269
:1085800041FA02F2002023EA0C01BAF1000F009236
:108590000B46024602DA00994942009120462946DC
:1085A000FBF742FD009B1B05029302460B46044667
:1085B0000D4630463946FBF739FD89464FF0000835
:1085C0007DA3D3E9002340464946FBF7E5FE22465A
:1085D0002B4682468B4640464946FBF725FD024620
:1085E0000B4630463946FBF71FFD75A3D3E9002340
:1085F000FBF7D2FE74A3D3E9002304460D464046A0
:108600004946FBF7C9FE02460B4620462946FBF7C2
:108610000DFD06460F4632463B4650465946FBF78F
:1086200005FD52465B4604460D46FBF7FDFC02463F
:108630000B4630463946FBF7F7FC22468046894612
:108640002B4620462946FBF7A7FE61A3D3E900236A
:1086500006460F46FBF7A0FE5FA3D3E90023FBF716
:10866000E3FC32463B46FBF797FE5DA3D3E90023CC
:10867000FBF7DCFC32463B46FBF78EFE5AA3D3E900
:108680000023FBF7D1FC32463B46FBF785FE58A39F
:10869000D3E90023FBF7CAFC32463B46FBF77CFEDE
:1086A00002460B4620462946FBF7BEFC06460F460F
:1086B00032463B4620462946FBF76EFE02460B46F5
:1086C0003046394616461F4600224FF08043FBF7DE
:1086D000ABFC02460B4630463946FBF787FF424665
:1086E00006460F464B4620462946FBF755FE4246B6
:1086F0004B46FBF79BFC02460B4630463946FBF7E0
:1087000093FC22462B46FBF78FFC02460B460020CB
:108710004149FBF789FC029A0B461344B3F5801FCD
:10872000C0F24381194653EC182BFBF735FE41ECA0
:10873000100B2DE4BBF1000FFFF6A0AC9FED2E0B4C
:1087400026E4DFF8DCC021F00043634540F3E78016
:10875000324B0B4403430AD122462B46FBF764FC01
:1087600032463B46FCF79EF800283FF4F3AE24A3C4
:10877000D3E9002351EC180BFBF70EFE20A3D3E93D
:108780000023FBF709FE41EC100B01E49FED1E7B7B
:10879000B0EE478AF0EE678A86E6BBF1000FCDDACD
:1087A00007F1004300EE106A00EE903AFFF7F0BBCD
:1087B000FE822B654715973C00000000432EE63FE4
:1087C000EF39FAFE422EE63F396CA80C615C20BE00
:1087D000D0A4BE726937663EF16BD2C541BDBB3EC7
:1087E0002CDE25AF6A56113F93BDBE166CC1663FA5
:1087F0003E5555555555C53F00000000000000008E
:1088000059F3F8C21F6EA501000000000000F03F00
:10881000FFFF8F40FFFF0F000000F03F00346F3F6D
:10882000FFCB9040984585DB7D4B98453FF722ACC8
:1088300051EC100B7A4B0022FBF7F6FB68A3D3E94F
:10884000002304460D46FBF7A7FD67A3D3E90023E9
:1088500082468B4620462946FBF79EFD714B41EC34
:10886000180B002220462946FBF796FD02460B46D0
:108870005FA1D1E90001FBF7D7FB22462B46FBF7AE
:108880008BFD02460B4600206749FBF7CDFB2246D5
:10889000804689462B4620462946FBF77DFD024649
:1088A0000B4640464946FBF777FD53A3D3E9002327
:1088B000FBF772FD02460B4651EC180BFBF7B4FBBD
:1088C0008046894642464B4650465946FBF7AEFB2A
:1088D000002052465B4604460D4691E522462B4653
:1088E00020462946FBF758FD41EC100BFFF750BB23
:1088F0004B49002022462B46FBF778FE41EC100B3B
:10890000FFF746BB002B44D1C1F114014AFA01F034
:1089100000FA01F151455AD00093FFF717BB424AC4
:1089200093425BDCDDE900120291009146E634A33C
:10893000D3E9002351EC180BFBF72EFD30A3D3E94C
:108940000023FBF729FD41EC100BFFF721BB009B37
:10895000012B7FF41DAB10EE901A10EE102A01F1DE
:10896000004343EC102BFFF713BB9FED277BB0EECA
:1089700047CAF0EE67CA9FED267BB0EE47DAF0EE0D
:1089800067DA9FED257B4FF4802553EC172BFFF71B
:10899000EBBB45EC104B009200F014F9009A002A52
:1089A0007FF492AB0092FFF726BB41EC100B0098CE
:1089B00000F0C2F951EC100BB5E600F00100C0F177
:1089C00002010091002B3FF4C1AAFFF70DBB00F09C
:1089D0000100C0F102030093FFF7B8BA1B15BBE515
:1089E000000000604715F73F44DF5DF80BAE543ED2
:1089F000555555555555D53FFE822B654715F73FC3
:108A00009C7500883CE4377E0000004003B8E23FDC
:108A100006D0CF43EBFD4C3E000000000000F83FC5
:108A20000000F03F0000D03F0000E03F2DE9F041A2
:108A3000634A55EC104BAA4300F09F80002D10EEC6
:108A400010CA2B4654DD291563D0C3F31303A1F2DA
:108A5000FF37C90743F4801304D45B0003EBDC73D6
:108A60004FEA4C0C4FEADC72002602EB43037F1006
:108A70004FEA4C0C4FF0160E34464FF40012A1187A
:108A8000994202DC5B1A8C1816445B00BEF1010EA1
:108A900003EBDC734FEA52024FEA4C0CEFD1754600
:108AA00020204FF000420AE044D04FEADC71013848
:108AB00001EB43034FEA4C0C4FEA520243D0A3426E
:108AC00002EB0E01F0DD002901EB020E0ADBA046ED
:108AD0001B1B614588BF03F1FF33ACEB010C154450
:108AE0004446E2E7BEF1000FF1DB04F10108EFE7D5
:108AF00025F00042224338D0002D4ED129464FEABE
:108B0000DC22153913464FEA4C5C002AF7D0D60216
:108B100050D400205B00DD02044600F10100F9D5CD
:108B20001A4663460CFA00FCC0F12000C340091B42
:108B300013438AE76145B8D8002901EB020ED1DB67
:108B400098460023C9E753EA0C0310D16808711056
:108B5000F30701F17F5101F5001148BF40F00040DB
:108B600001EB0753024643EC102BBDE8F0816A1C71
:108B700016BF681C01364008E9E710EE102A10EE17
:108B8000100A2B462946FBF707FC22462B46FBF72B
:108B90004DFA41EC100BBDE8F08110EE102A204692
:108BA0002946FBF741FA02460B46FBF71FFD41EC55
:108BB000100BDAE7634620204FF0FF34B6E700BF22
:108BC0000000F07F51EC100B10EE102A21F0004352
:108BD00043EC102B704700BF82B08DED000B019865
:108BE00040F0004000F58010C00F02B0704700BF99
:108BF0009FED010B704700BF000000000000F87FF0
:108C0000F0B553EC102BC3F30A5CACF2FF3113291F
:108C100010EE100A83B01C464FEAD37E3ADC0029DE
:108C200030DB424D45FA01FC03EA0C0515432DD01B
:108C300003EA5C0318434FEA5C0C0CD024EA0C0CEA
:108C40004FF48024132944FA01F10CBF4FF0004087
:108C500000204CEA0104364901EBCE0E2346DEE942
:108C60000045024629462046FBF7E0F9CDE9000120
:108C7000DDE9000122462B46FBF7D6F941EC100B4B
:108C800003B0F0BD23F00041114324D143EC102B7D
:108C900003B0F0BD332908DDB1F5806FF6D1194678
:108CA000FBF7C4F941EC100BF2E7ACF2134C4FF0B8
:108CB000FF3121FA0CF10A42E8D010EA51024FEAE2
:108CC0005103C8D020EA03034FF0804040FA0CFC67
:108CD00043EA0C00BFE7C3F313031843144A4342AB
:108CE000034302EBCE0E1B0B620C03F40023520471
:108CF00043EA02073B46DEE9006710EE102A3046E1
:108D00003946FBF793F9CDE9000132463B46DDE9F0
:108D10000001FBF789F904F0004421F0004102460C
:108D200041EA040343EC102B03B0F0BDFFFF0F003A
:108D3000E0960B000000000038B553EC102BC3F395
:108D40000A5104469C4689BB10EE101A23F0004CD1
:108D50005CEA010129D0194600223D4B3D4D10EE41
:108D6000100AFBF719FBAC4202460B4616DB8C4699
:108D7000C1F30A513639214440F2FE70814221DCB0
:108D8000002947DC11F1350F34DA4CF250318C42B6
:108D900018DC002B26A1D1E9000144DB24A3D3E990
:108DA0000023FBF7F9FA41EC100B38BD40F2FF70DD
:108DB0008142E0D110EE100A1946FBF737F941EC79
:108DC000100B38BD002B1CA1D1E9000107DB1AA351
:108DD000D3E90023FBF7E0FA41EC100B38BD18A1F2
:108DE000D1E9000114A3D3E90023FBF7D5FA41EC44
:108DF000100BF3E72CF0FF4C2CF4E00C36314CEA6E
:108E00000153104619460022134BFBF7C5FA41ECFB
:108E1000100B38BD2CF0FF4C2CF4E00C4CEA015345
:108E200043EC102B38BD08A1D1E90001B6E700BF23
:108E300059F3F8C21F6EA5019C7500883CE4377E8B
:108E40009C7500883CE437FE59F3F8C21F6EA5817B
:108E500000005043B03CFFFF0000903C002301465F
:108E60001A46184600F062B80A44914200F1FF33F6
:108E700000D1704710B511F8014B03F8014F914232
:108E8000F9D110BD02440346934200D1704703F864
:108E9000011BF9E738B5104B1D68AB6B0446B3B93D
:108EA0001820FDF777FD0246A86320B90B4B0C484C
:108EB0004221FDF7A7FD0B490B4BC0E900130B4BFB
:108EC00083600B23838100210120C2E90401AB6B85
:108ED00000221C615A6138BDD0E50320F0960B00DA
:108EE00007970B000E33CDAB34126DE6ECDE0500B8
:108EF000024B0146186800F003B800BFD0E503201C
:108F000037B5044608460D46FCF70EF8421C1146DC
:108F100020460192FDF766FD044618B1019A2946E4
:108F2000FFF7A2FF204603B030BD00002DE9F84353
:108F3000DFF8B8800646D8F800001F460D46914677
:108F400000F056F8254B1C6834B9254C1C60254BA5
:108F500013B11B68C4F8883063681F2B07DDD8F88D
:108F6000000000F047F84FF0FF30BDE8F8834EB343
:108F7000D4F8880088B91C4B23B9D8F8000000F059
:108F800038F8F0E74FF48470FDF704FD0028F4D0C2
:108F90000023C0E94033C4F88800636840F8239098
:108FA00001229A4000EB8301D0F800311343C0F84E
:108FB0000031022EC1F8807002BFD0F80431134393
:108FC000C0F804316368D8F800005A1C02336260AC
:108FD00044F8235000F00EF80020C6E7E8E703202D
:108FE0005CE703200000000095690B0034E60320D5
:108FF0007047704770470000394F0B00754F0B00EA
:109000009D4F0B00A14F0B00000000004C504F3A49
:1090100020256C7500526174696F3A2025662525FC
:1090200000436F6E63656E74726174696F6E3A208F
:109030002566207063732F4C004E6F6E650044618F
:109040006E676572004869676820506F6C6C757454
:10905000696F6E004C6F7720506F6C6C7574696F20
:109060006E004672657368204169720054656D70C8
:109070003A2000430048756D69646974793A2000AC
:1090800048656C6C6F2054686F6D61730044757334
:10909000743A2000416972205175616C69747920BD
:1090A00053656E736F722072656164792E00416939
:1090B00072205175616C6974792053656E736F729B
:1090C000204552524F522100424D453238302053F4
:1090D000656E736F722072656164792E00424D4532
:1090E0003238302053656E736F72204552524F52A2
:1090F00021005061727469636C650041697220518E
:1091000075616C697479004D6F6E69746F7200746B
:10911000656D700068756D69646974790070726559
:109120007373757265006169722D7175616C697414
:109130007900647573742D6C706F00647573742D91
:10914000726174696F00647573742D636F6E63650B
:109150006E74726174696F6E00656E762D76616CE7
:109160007300416972205175616C6974793A2025E8
:10917000730054656D703A202564005072657373F6
:109180007572653A2025640048756D696469747963
:109190003A202564000000000000000000000000EC
:1091A000CD4F0B00E14F0B0000000000020000005B
:1091B000010000000300000064656661756C7420A6
:1091C000004D5342004C5342003C53504953657488
:1091D00074696E67732064656661756C743E003CEB
:1091E00053504953657474696E67732025732575F0
:1091F000202573204D4F444525753E00000000009A
:1092000000000000A9570B007D570B007F570B0093
:10921000000000000000000000005F0000000000EF
:10922000000007000700000000147F147F140000F6
:1092300000242A7F2A120000002313086462000021
:1092400000364955225000000000050300000000D0
:10925000001C2241000000000041221C0000000010
:1092600000082A1C2A0800000008083E0808000020
:1092700000A06000000000000008080808080000C6
:1092800000606000000000000020100804020000E0
:10929000003E5149453E00000000427F4000000072
:1092A0000062514949460000002241494936000008
:1092B000001814127F1000000027454545390000B2
:1092C000003C4A49493000000001710905030000D3
:1092D000003649494936000000064949291E000068
:1092E00000003636000000000000AC6C00000000FA
:1092F000000814224100000000141414141400008B
:10930000004122140800000000020151090600007B
:1093100000324979413E0000007E0909097E0000C3
:10932000007F494949360000003E4141412200008A
:10933000007F4141221C0000007F49494941000053
:10934000007F090909010000003E414151720000FF
:10935000007F0808087F000000417F4100000000F6
:10936000002040413F010000007F0814224100001E
:10937000007F404040400000007F020C027F000060
:10938000007F0408107F0000003E4141413E000084
:10939000007F090909060000003E4151215E0000DE
:1093A000007F09192946000000264949493200007A
:1093B0000001017F01010000003F4040403F0000EC
:1093C000001F2040201F0000003F4038403F0000A9
:1093D0000063140814630000000304780403000011
:1093E0000061514945430000007F414100000000F9
:1093F00000020408102000000041417F000000002E
:1094000000040201020400000080808080800000CF
:1094100000010204000000000020545454780000B1
:10942000007F4844443800000038444428000000CD
:1094300000384444487F0000003854545418000059
:1094400000087E09020000000018A4A4A47C00000B
:10945000007F08040478000000007D000000000088
:109460000080847D00000000007F10284400000080
:1094700000417F4000000000007C041804780000D8
:10948000007C08047C0000000038444438000000E0
:1094900000FC24241800000000182424FC00000014
:1094A00000007C0804000000004854542400000020
:1094B00000047F4400000000003C40407C000000AD
:1094C000001C2040201C0000003C4030403C0000BC
:1094D0000044281028440000001CA0A07C000000CC
:1094E000004464544C440000000836410000000071
:1094F00000007F000000000000413608000000006E
:109500000002010102010000000205050200000046
:109510005C752530345800252E2A6600256600002B
:1095200000000000000000007D620B0099620B004B
:109530000000000000000000AD620B00C1620B00E3
:109540000000000000000000D16A0B00D76A0B0089
:10955000156B0B00E56A0B00D36A0B0000000000DE
:10956000000000005F700B0055700B004B700B008B
:1095700041700B0035700B0029700B00B9720B00A5
:10958000C1720B001D700B0015700B000B700B00EF
:1095900001700B00F1720B000000000000000000E1
:1095A0007D700B00C7700B009F700B007F700B006D
:1095B000A7700B00AF700B00B7700B00BF700B00F3
:1095C000000000000000000089710B0079710B00A1
:1095D0007B710B0061707000000000000000000053
:1095E00079720B0083720B008D720B0097720B0067
:1095F000A1720B00AD720B00B9720B00C1720B00AF
:10960000C9720B00D5720B00DD720B00E7720B0004
:10961000F1720B00000810182028303825592D252C
:109620006D2D25645425483A254D3A2553257A0059
:1096300061736374696D6500000000000000000044
:10964000C5770B0031780B0009780B00DD730B0038
:10965000D9770B00F5770B00E7770B0003780B0049
:10966000C7770B00CB770B00000000000000000064
:109670006F780B00D7780B00AD780B00DD730B0013
:109680009F780B0071780B0081780B00D1780B006C
:1096900091780B0069780B000000000000000000CA
:1096A000CF790B00C5790B00BB790B0071790B00EA
:1096B000AF790B00A3790B00B9720B00C1720B00DC
:1096C00097790B008F790B0085790B007B790B0064
:1096D000F1720B000000000000000000000000001C
:1096E000000000000000304300000000000030C314
:1096F0005245454E54206D616C6C6F6320737563E9
:10970000636565646564002F746D702F6A656E6BA8
:10971000696E732D4743432D31302D706970656C30
:10972000696E652D34385F32303230313132345F1A
:10973000313630363138303633392F7372632F6E0D
:1097400065776C69622F6E65776C69622F6C6962F0
:10975000632F7374646C69622F72616E642E630090
:1097600095560B00C16A0B0069700B0069720B0003
:10977000C9730B0005750B008D770B00B1770B00DB
:04978000D9790B0088
:08978400D0B4FF7F01000000DA
:10978C00040000001400000003000000474E5500C8
:10979C008D13B261B1C799885F0CB03C194D16B1ED
:0497AC008E4ADE2ED5
:1097B0000700000030960B00FF000000D4E50320F6
:1097C0000000000000000000000000000000000099
:1097D0000000000000000000000000000000000089
:1097E0000000000000000000000000000000000079
:1097F0000000000000000000000000000000000069
:109800000000000000000000000000000000000058
:109810000000000000000000000000000000000048
:04982000ECE703204E
:049824000000000040
:10982E0000000102030405060708090A0B0C0D0EC1
:10983E000F101112131415161718191A1B1C1D1EB2
:04984E001F202800AF
:0498520078563412FE
:04000003B0004020E9
:00000001FF
